{
  "_format": "hh-sol-artifact-1",
  "contractName": "GovernanceDAO",
  "sourceName": "contracts/GovernanceDAO.sol",
  "abi": [
    {
      "inputs": [],
      "stateMutability": "nonpayable",
      "type": "constructor"
    },
    {
      "anonymous": false,
      "inputs": [
        {
          "indexed": true,
          "internalType": "address",
          "name": "previousOwner",
          "type": "address"
        },
        {
          "indexed": true,
          "internalType": "address",
          "name": "newOwner",
          "type": "address"
        }
      ],
      "name": "OwnershipTransferred",
      "type": "event"
    },
    {
      "anonymous": false,
      "inputs": [
        {
          "indexed": true,
          "internalType": "uint256",
          "name": "proposalId",
          "type": "uint256"
        },
        {
          "indexed": true,
          "internalType": "address",
          "name": "proposer",
          "type": "address"
        },
        {
          "indexed": false,
          "internalType": "string",
          "name": "title",
          "type": "string"
        },
        {
          "indexed": false,
          "internalType": "string",
          "name": "description",
          "type": "string"
        },
        {
          "indexed": false,
          "internalType": "uint256",
          "name": "startTime",
          "type": "uint256"
        },
        {
          "indexed": false,
          "internalType": "uint256",
          "name": "endTime",
          "type": "uint256"
        }
      ],
      "name": "ProposalCreated",
      "type": "event"
    },
    {
      "anonymous": false,
      "inputs": [
        {
          "indexed": true,
          "internalType": "uint256",
          "name": "proposalId",
          "type": "uint256"
        }
      ],
      "name": "ProposalExecuted",
      "type": "event"
    },
    {
      "anonymous": false,
      "inputs": [
        {
          "indexed": true,
          "internalType": "uint256",
          "name": "proposalId",
          "type": "uint256"
        },
        {
          "indexed": false,
          "internalType": "enum GovernanceDAO.ProposalState",
          "name": "newState",
          "type": "uint8"
        }
      ],
      "name": "ProposalStateChanged",
      "type": "event"
    },
    {
      "anonymous": false,
      "inputs": [
        {
          "indexed": true,
          "internalType": "address",
          "name": "voter",
          "type": "address"
        },
        {
          "indexed": true,
          "internalType": "uint256",
          "name": "proposalId",
          "type": "uint256"
        },
        {
          "indexed": false,
          "internalType": "enum GovernanceDAO.VoteType",
          "name": "vote",
          "type": "uint8"
        },
        {
          "indexed": false,
          "internalType": "uint256",
          "name": "weight",
          "type": "uint256"
        }
      ],
      "name": "VoteCast",
      "type": "event"
    },
    {
      "inputs": [],
      "name": "PROPOSAL_THRESHOLD",
      "outputs": [
        {
          "internalType": "uint256",
          "name": "",
          "type": "uint256"
        }
      ],
      "stateMutability": "view",
      "type": "function"
    },
    {
      "inputs": [],
      "name": "QUORUM_PERCENTAGE",
      "outputs": [
        {
          "internalType": "uint256",
          "name": "",
          "type": "uint256"
        }
      ],
      "stateMutability": "view",
      "type": "function"
    },
    {
      "inputs": [],
      "name": "VOTING_DURATION",
      "outputs": [
        {
          "internalType": "uint256",
          "name": "",
          "type": "uint256"
        }
      ],
      "stateMutability": "view",
      "type": "function"
    },
    {
      "inputs": [
        {
          "internalType": "address",
          "name": "",
          "type": "address"
        }
      ],
      "name": "balances",
      "outputs": [
        {
          "internalType": "uint256",
          "name": "",
          "type": "uint256"
        }
      ],
      "stateMutability": "view",
      "type": "function"
    },
    {
      "inputs": [
        {
          "internalType": "string",
          "name": "title",
          "type": "string"
        },
        {
          "internalType": "string",
          "name": "description",
          "type": "string"
        },
        {
          "internalType": "address",
          "name": "target",
          "type": "address"
        },
        {
          "internalType": "bytes",
          "name": "data",
          "type": "bytes"
        },
        {
          "internalType": "uint256",
          "name": "value",
          "type": "uint256"
        }
      ],
      "name": "createProposal",
      "outputs": [
        {
          "internalType": "uint256",
          "name": "",
          "type": "uint256"
        }
      ],
      "stateMutability": "nonpayable",
      "type": "function"
    },
    {
      "inputs": [
        {
          "internalType": "uint256",
          "name": "proposalId",
          "type": "uint256"
        }
      ],
      "name": "emergencyPause",
      "outputs": [],
      "stateMutability": "nonpayable",
      "type": "function"
    },
    {
      "inputs": [
        {
          "internalType": "uint256",
          "name": "proposalId",
          "type": "uint256"
        }
      ],
      "name": "executeProposal",
      "outputs": [],
      "stateMutability": "nonpayable",
      "type": "function"
    },
    {
      "inputs": [],
      "name": "getAllProposals",
      "outputs": [
        {
          "internalType": "uint256[]",
          "name": "",
          "type": "uint256[]"
        }
      ],
      "stateMutability": "view",
      "type": "function"
    },
    {
      "inputs": [
        {
          "internalType": "uint256",
          "name": "proposalId",
          "type": "uint256"
        }
      ],
      "name": "getProposal",
      "outputs": [
        {
          "components": [
            {
              "internalType": "uint256",
              "name": "id",
              "type": "uint256"
            },
            {
              "internalType": "address",
              "name": "proposer",
              "type": "address"
            },
            {
              "internalType": "string",
              "name": "title",
              "type": "string"
            },
            {
              "internalType": "string",
              "name": "description",
              "type": "string"
            },
            {
              "internalType": "uint256",
              "name": "startTime",
              "type": "uint256"
            },
            {
              "internalType": "uint256",
              "name": "endTime",
              "type": "uint256"
            },
            {
              "internalType": "uint256",
              "name": "forVotes",
              "type": "uint256"
            },
            {
              "internalType": "uint256",
              "name": "againstVotes",
              "type": "uint256"
            },
            {
              "internalType": "uint256",
              "name": "abstainVotes",
              "type": "uint256"
            },
            {
              "internalType": "bool",
              "name": "executed",
              "type": "bool"
            },
            {
              "internalType": "enum GovernanceDAO.ProposalState",
              "name": "state",
              "type": "uint8"
            },
            {
              "internalType": "address",
              "name": "target",
              "type": "address"
            },
            {
              "internalType": "bytes",
              "name": "data",
              "type": "bytes"
            },
            {
              "internalType": "uint256",
              "name": "value",
              "type": "uint256"
            }
          ],
          "internalType": "struct GovernanceDAO.Proposal",
          "name": "",
          "type": "tuple"
        }
      ],
      "stateMutability": "view",
      "type": "function"
    },
    {
      "inputs": [],
      "name": "getProposalCount",
      "outputs": [
        {
          "internalType": "uint256",
          "name": "",
          "type": "uint256"
        }
      ],
      "stateMutability": "view",
      "type": "function"
    },
    {
      "inputs": [
        {
          "internalType": "uint256",
          "name": "proposalId",
          "type": "uint256"
        }
      ],
      "name": "getProposalState",
      "outputs": [
        {
          "internalType": "enum GovernanceDAO.ProposalState",
          "name": "",
          "type": "uint8"
        }
      ],
      "stateMutability": "view",
      "type": "function"
    },
    {
      "inputs": [
        {
          "internalType": "uint256",
          "name": "proposalId",
          "type": "uint256"
        },
        {
          "internalType": "address",
          "name": "voter",
          "type": "address"
        }
      ],
      "name": "getVote",
      "outputs": [
        {
          "components": [
            {
              "internalType": "bool",
              "name": "hasVoted",
              "type": "bool"
            },
            {
              "internalType": "enum GovernanceDAO.VoteType",
              "name": "vote",
              "type": "uint8"
            },
            {
              "internalType": "uint256",
              "name": "weight",
              "type": "uint256"
            }
          ],
          "internalType": "struct GovernanceDAO.Vote",
          "name": "",
          "type": "tuple"
        }
      ],
      "stateMutability": "view",
      "type": "function"
    },
    {
      "inputs": [
        {
          "internalType": "uint256",
          "name": "proposalId",
          "type": "uint256"
        },
        {
          "internalType": "address",
          "name": "voter",
          "type": "address"
        }
      ],
      "name": "hasVoted",
      "outputs": [
        {
          "internalType": "bool",
          "name": "",
          "type": "bool"
        }
      ],
      "stateMutability": "view",
      "type": "function"
    },
    {
      "inputs": [],
      "name": "owner",
      "outputs": [
        {
          "internalType": "address",
          "name": "",
          "type": "address"
        }
      ],
      "stateMutability": "view",
      "type": "function"
    },
    {
      "inputs": [
        {
          "internalType": "uint256",
          "name": "",
          "type": "uint256"
        }
      ],
      "name": "proposalIds",
      "outputs": [
        {
          "internalType": "uint256",
          "name": "",
          "type": "uint256"
        }
      ],
      "stateMutability": "view",
      "type": "function"
    },
    {
      "inputs": [
        {
          "internalType": "uint256",
          "name": "",
          "type": "uint256"
        }
      ],
      "name": "proposals",
      "outputs": [
        {
          "internalType": "uint256",
          "name": "id",
          "type": "uint256"
        },
        {
          "internalType": "address",
          "name": "proposer",
          "type": "address"
        },
        {
          "internalType": "string",
          "name": "title",
          "type": "string"
        },
        {
          "internalType": "string",
          "name": "description",
          "type": "string"
        },
        {
          "internalType": "uint256",
          "name": "startTime",
          "type": "uint256"
        },
        {
          "internalType": "uint256",
          "name": "endTime",
          "type": "uint256"
        },
        {
          "internalType": "uint256",
          "name": "forVotes",
          "type": "uint256"
        },
        {
          "internalType": "uint256",
          "name": "againstVotes",
          "type": "uint256"
        },
        {
          "internalType": "uint256",
          "name": "abstainVotes",
          "type": "uint256"
        },
        {
          "internalType": "bool",
          "name": "executed",
          "type": "bool"
        },
        {
          "internalType": "enum GovernanceDAO.ProposalState",
          "name": "state",
          "type": "uint8"
        },
        {
          "internalType": "address",
          "name": "target",
          "type": "address"
        },
        {
          "internalType": "bytes",
          "name": "data",
          "type": "bytes"
        },
        {
          "internalType": "uint256",
          "name": "value",
          "type": "uint256"
        }
      ],
      "stateMutability": "view",
      "type": "function"
    },
    {
      "inputs": [],
      "name": "renounceOwnership",
      "outputs": [],
      "stateMutability": "nonpayable",
      "type": "function"
    },
    {
      "inputs": [
        {
          "internalType": "address",
          "name": "user",
          "type": "address"
        },
        {
          "internalType": "uint256",
          "name": "amount",
          "type": "uint256"
        }
      ],
      "name": "setBalance",
      "outputs": [],
      "stateMutability": "nonpayable",
      "type": "function"
    },
    {
      "inputs": [],
      "name": "totalSupply",
      "outputs": [
        {
          "internalType": "uint256",
          "name": "",
          "type": "uint256"
        }
      ],
      "stateMutability": "view",
      "type": "function"
    },
    {
      "inputs": [
        {
          "internalType": "address",
          "name": "newOwner",
          "type": "address"
        }
      ],
      "name": "transferOwnership",
      "outputs": [],
      "stateMutability": "nonpayable",
      "type": "function"
    },
    {
      "inputs": [
        {
          "internalType": "uint256",
          "name": "proposalId",
          "type": "uint256"
        },
        {
          "internalType": "enum GovernanceDAO.VoteType",
          "name": "voteType",
          "type": "uint8"
        }
      ],
      "name": "vote",
      "outputs": [],
      "stateMutability": "nonpayable",
      "type": "function"
    },
    {
      "inputs": [
        {
          "internalType": "uint256",
          "name": "",
          "type": "uint256"
        },
        {
          "internalType": "address",
          "name": "",
          "type": "address"
        }
      ],
      "name": "votes",
      "outputs": [
        {
          "internalType": "bool",
          "name": "hasVoted",
          "type": "bool"
        },
        {
          "internalType": "enum GovernanceDAO.VoteType",
          "name": "vote",
          "type": "uint8"
        },
        {
          "internalType": "uint256",
          "name": "weight",
          "type": "uint256"
        }
      ],
      "stateMutability": "view",
      "type": "function"
    }
  ],
  "bytecode": "0x6080806040523461005f5760008054336001600160a01b0319821681178355916001600160a01b03909116907f8be0079c531659141344cd1fd0a4f28419497f9722a3daafe3b4186f6b6457e09080a360018055611ca290816100658239f35b600080fdfe608080604052600436101561001357600080fd5b60003560e01c908163013cf08b14611582575080630d61b5191461124057806318160ddd1461122257806327e235e3146111e8578063438596321461119b578063715018a6146111425780638da5cb5b146111195780639080936f146110ec578063943e821614610e295780639b644a2314610df2578063a438d20814610dd4578063a6c2660314610db0578063ad3fbe3014610d49578063bc3f931f14610c99578063c08cc02d14610c7b578063c7f758a8146109ff578063cceb68f514610949578063d23254b4146108dd578063e30443bc14610873578063ee8a7c1514610857578063f2fde38b1461078e5763f7b2f7221461011157600080fd5b346107895760a03660031901126107895760043567ffffffffffffffff81116107895761014290369060040161191e565b60243567ffffffffffffffff81116107895761016290369060040161191e565b90604435906001600160a01b03821682036107895760643567ffffffffffffffff81116107895736602382011215610789576101a89036906024816004013591016118e7565b91336000526005602052683635c9adc5dea0000060406000205410610735578151156106f8578351156106b357600160025401928360025562093a804201421161069d57604051916101f9836117b9565b84835233602084015283604084015285606084015242608084015262093a80420160a0840152600060c0840152600060e084015260006101008401526000610120840152600161014084015260018060a01b03166101608301526101808201526084356101a0820152826000526003602052604060002090805182556001820160018060a01b036020830151166bffffffffffffffffffffffff60a01b825416179055604081015180519067ffffffffffffffff82116104fd5781906102cf826102c660028801546116cd565b600288016119ad565b602090601f831160011461062b57600092610620575b50508160011b916000199060031b1c19161760028301555b606081015180519067ffffffffffffffff82116104fd5781906103308261032760038801546116cd565b600388016119ad565b602090601f83116001146105ae576000926105a3575b50508160011b916000199060031b1c19161760038301555b6080810151600483015560a0810151600583015560c0810151600683015560e081015160078301556101008101516008830155600982016103b26101208301511515829060ff801983541691151516179055565b610140820151600581101561058d57815461ff0062010000600160b01b0361016086015160101b169260081b1690610100600160b01b03191617179055600a820161018082015180519067ffffffffffffffff82116104fd5761041f8261041985546116cd565b856119ad565b602090601f831160011461051e5791806101a09492600b9694600092610513575b50508160011b916000199060031b1c19161790555b0151910155600754680100000000000000008110156104fd577ffaa337366f7965edea73e5dda4e27a18008218bee177df73f82fc597a1f4dd086104dd6020956104a6846001889601600755611871565b81549060031b9086821b91600019901b19161790556104d0604051956080875260808701906117f8565b90858203888701526117f8565b9242604082015262093a80420160608201528033940390a3604051908152f35b634e487b7160e01b600052604160045260246000fd5b015190503880610440565b90601f198316918460005260206000209260005b8181106105755750926001928592600b98966101a098961061055c575b505050811b019055610455565b015160001960f88460031b161c1916905538808061054f565b92936020600181928786015181550195019301610532565b634e487b7160e01b600052602160045260246000fd5b015190503880610346565b9250600385016000526020600020906000935b601f1984168510610605576001945083601f198116106105ec575b505050811b01600383015561035e565b015160001960f88460031b161c191690553880806105dc565b818101518355602094850194600190930192909101906105c1565b0151905038806102e5565b9250600285016000526020600020906000935b601f1984168510610682576001945083601f19811610610669575b505050811b0160028301556102fd565b015160001960f88460031b161c19169055388080610659565b8181015183556020948501946001909301929091019061063e565b634e487b7160e01b600052601160045260246000fd5b60405162461bcd60e51b815260206004820152601b60248201527f4465736372697074696f6e2063616e6e6f7420626520656d70747900000000006044820152606490fd5b60405162461bcd60e51b81526020600482015260156024820152745469746c652063616e6e6f7420626520656d70747960581b6044820152606490fd5b60405162461bcd60e51b815260206004820152602660248201527f496e73756666696369656e7420746f6b656e7320746f206372656174652070726044820152651bdc1bdcd85b60d21b6064820152608490fd5b600080fd5b34610789576020366003190112610789576107a7611845565b6107af61193c565b6001600160a01b0390811690811561080357600054826bffffffffffffffffffffffff60a01b821617600055167f8be0079c531659141344cd1fd0a4f28419497f9722a3daafe3b4186f6b6457e0600080a3005b60405162461bcd60e51b815260206004820152602660248201527f4f776e61626c653a206e6577206f776e657220697320746865207a65726f206160448201526564647265737360d01b6064820152608490fd5b3461078957600036600319011261078957602060405160148152f35b346107895760403660031901126107895761088c611845565b6024359061089861193c565b6006549060018060a01b031690816000526005602052604060002054810390811161069d57826108c791611994565b6006556000526005602052604060002055600080f35b34610789576040366003190112610789576108f661185b565b600435600052600460205260406000209060018060a01b031660005260205260606040600020600181549101546109426040519260ff81161515845260ff602085019160081c166118be565b6040820152f35b3461078957600036600319011261078957604051806007548083526020809301809160076000527fa66cc928b5edb82af9bd49922954155ab7b0942694bea4ce44661d9a8736c6889060005b868282106109eb5786866109ab828803836117d6565b604051928392818401908285525180915260408401929160005b8281106109d457505050500390f35b8351855286955093810193928101926001016109c5565b835485529093019260019283019201610995565b346107895760203660031901126107895760006101a0604051610a21816117b9565b828152826020820152606060408201526060808201528260808201528260a08201528260c08201528260e082015282610100820152826101208201528261014082015282610160820152606061018082015201526002546004359081111580610c72575b610a8e90611a01565b60005260036020526040600020600b60405191610aaa836117b9565b8054835260018101546001600160a01b03166020840152604051610adc81610ad58160028601611707565b03826117d6565b6040840152604051610af581610ad58160038601611707565b606084015260048101546080840152600581015460a0840152600681015460c0840152600781015460e08401526008810154610100840152600981015460ff81161515610120850152610b5260ff8260081c1661014086016119a1565b60101c6001600160a01b0316610160840152604051610b7881610ad581600a8601611707565b61018084015201546101a08201526040518091602082528051602083015260018060a01b0360208201511660408301526101a0610c65610be2610bcc60408501516101c060608801526101e08701906117f8565b6060850151868203601f190160808801526117f8565b608084015160a086015260a084015160c086015260c084015160e086015260e08401516101008601526101008401516101208601526101208401511515610140860152610c39610140850151610160870190611838565b6101608401516001600160a01b031661018086810191909152840151858203601f1901848701526117f8565b9101516101c08301520390f35b50801515610a85565b34610789576000366003190112610789576020600254604051908152f35b3461078957604036600319011261078957610cb261185b565b600060408051610cc18161179d565b8281528260208201520152600435600052600460205260406000209060018060a01b03166000526020526060604060002060405190610cff8261179d565b610d41600182549260ff841615158552610d2360ff602087019560081c1685611a85565b015491604084019283526040519351151584525160208401906118be565b516040820152f35b3461078957602036600319011261078957600435610d6561193c565b806000526003602052600960406000200161020061ff00198254161790557fd6b3a81dd8b7dc419d8d0f20797397ea2eaba914386b89898aa638438803a1ec602060405160028152a2005b34610789576000366003190112610789576020604051683635c9adc5dea000008152f35b3461078957600036600319011261078957602060405162093a808152f35b346107895760203660031901126107895760043560075481101561078957610e1b602091611871565b90546040519160031b1c8152f35b346107895760403660031901126107895760246004358135600381101561078957610e52611a91565b3360005260209260058452604060002054156110b757600254831115806110ae575b610e7d90611a01565b826000526003845260406000209360ff600986015460081c1694600586101561109957610ead6001809714611a43565b60048101544210611061576005810154421161102f578460005260048252604060002033600052825260ff60406000205416610ffc5733600052600582526040600020549260405190610eff8261179d565b87825283820190610f108783611a85565b604083019186835288600052600486526040600020336000528652610f49604060002094511515859060ff801983541691151516179055565b51906003821015610fe85750825461ff00191660089190911b61ff00161782555190870155838603610fc057600601610f83838254611994565b90555b610f9360405180946118be565b8201527f2c9deb38f462962eadbd85a9d3a4120503ee091f1582eaaa10aa8c6797651d2960403392a38055005b83610fda57600701610fd3838254611994565b9055610f86565b600801610fd3838254611994565b634e487b7160e01b60009081526021600452fd5b50600d6064926040519262461bcd60e51b845260048401528201526c105b1c9958591e481d9bdd1959609a1b6044820152fd5b50600c6064926040519262461bcd60e51b845260048401528201526b159bdd1a5b99c8195b99195960a21b6044820152fd5b5060126064926040519262461bcd60e51b8452600484015282015271159bdd1a5b99c81b9bdd081cdd185c9d195960721b6044820152fd5b82634e487b7160e01b60005260216004526000fd5b50821515610e74565b83600f6064926040519262461bcd60e51b845260048401528201526e2737903b37ba34b733903837bbb2b960891b6044820152fd5b3461078957602036600319011261078957602061110a600435611ae7565b6111176040518092611838565bf35b34610789576000366003190112610789576000546040516001600160a01b039091168152602090f35b346107895760003660031901126107895761115b61193c565b600080546001600160a01b0319811682556001600160a01b03167f8be0079c531659141344cd1fd0a4f28419497f9722a3daafe3b4186f6b6457e08280a3005b34610789576040366003190112610789576111b461185b565b600435600052600460205260406000209060018060a01b0316600052602052602060ff604060002054166040519015158152f35b34610789576020366003190112610789576001600160a01b03611209611845565b1660005260056020526020604060002054604051908152f35b34610789576000366003190112610789576020600654604051908152f35b34610789576020806003193601126107895760043561125d611a91565b60025481111580611579575b61127290611a01565b8060005260038252604060002091600983019283549360ff8560081c1694600586101561058d576112a66001809714611a43565b600583015442111561153e5760ff16611506578360005260038352604060002060068101546007820154906112e96112de8383611994565b600885015490611994565b60065460148102908082046014149015171561069d5788947fd6b3a81dd8b7dc419d8d0f20797397ea2eaba914386b89898aa638438803a1ec94899460ff94606460099504116000146114d6575050808201805461ff0019166102001790555b015460081c1661135c6040518092611838565ba280549060ff8260081c16600581101561058d5760031461137c57858055005b60ff1991821686179081905560101c6001600160a01b031691826113ce575b505050507f712ae1383f79ac853f8d882153778e0260ef8f03b504e2866e0593e04d2b291f600080a28180808080858055005b600a600b82015491016040519260009180546113e9816116cd565b92818b169182156114c257505060011461148a575b5050916000939181859403925af13d15611485573d61141c816118cb565b9061142a60405192836117d6565b81526000833d92013e5b156114415780808061139b565b6064906040519062461bcd60e51b82526004820152601960248201527f50726f706f73616c20657865637574696f6e206661696c6564000000000000006044820152fd5b611434565b9091506000528460002085886000925b8484106114b057505050908301905081836113fe565b8054848801520191019088879161149a565b1686525050801515028301905081836113fe565b11156114f157808201805461ff001916610300179055611349565b808201805461ff001916610200179055611349565b60405162461bcd60e51b815260048101849052601060248201526f105b1c9958591e48195e1958dd5d195960821b6044820152606490fd5b60405162461bcd60e51b8152600481018590526013602482015272566f74696e67207374696c6c2061637469766560681b6044820152606490fd5b50801515611269565b34610789576020366003190112610789576004356000908152600360205260409020805460018201546001600160a01b0390811693919290826115c88160028501611707565b036115d390846117d6565b60405190816115e58160038601611707565b036115f090836117d6565b60048301549160058401546006850154600786015490600887015492600988015494604051988980600a83019061162691611707565b03611631908b6117d6565b600b0154996040519c8d9c8d5260208d01528b6101c06040819201528c01611658916117f8565b8b810360608d0152611669916117f8565b9660808b015260a08a015260c089015260e088015261010087015260ff8116151561012087015261014086018160081c60ff16906116a691611838565b60101c166101608501528381036101808501526116c2916117f8565b906101a08301520390f35b90600182811c921680156116fd575b60208310146116e757565b634e487b7160e01b600052602260045260246000fd5b91607f16916116dc565b9060009291805491611718836116cd565b91828252600193848116908160001461177a575060011461173a575b50505050565b90919394506000526020928360002092846000945b838610611766575050505001019038808080611734565b80548587018301529401938590820161174f565b9294505050602093945060ff191683830152151560051b01019038808080611734565b6060810190811067ffffffffffffffff8211176104fd57604052565b6101c0810190811067ffffffffffffffff8211176104fd57604052565b90601f8019910116810190811067ffffffffffffffff8211176104fd57604052565b919082519283825260005b848110611824575050826000602080949584010152601f8019910116010190565b602081830181015184830182015201611803565b90600582101561058d5752565b600435906001600160a01b038216820361078957565b602435906001600160a01b038216820361078957565b6007548110156118a85760076000527fa66cc928b5edb82af9bd49922954155ab7b0942694bea4ce44661d9a8736c6880190600090565b634e487b7160e01b600052603260045260246000fd5b90600382101561058d5752565b67ffffffffffffffff81116104fd57601f01601f191660200190565b9291926118f3826118cb565b9161190160405193846117d6565b829481845281830111610789578281602093846000960137010152565b9080601f8301121561078957816020611939933591016118e7565b90565b6000546001600160a01b0316330361195057565b606460405162461bcd60e51b815260206004820152602060248201527f4f776e61626c653a2063616c6c6572206973206e6f7420746865206f776e65726044820152fd5b9190820180921161069d57565b600582101561058d5752565b90601f81116119bb57505050565b600091825260208220906020601f850160051c830194106119f7575b601f0160051c01915b8281106119ec57505050565b8181556001016119e0565b90925082906119d7565b15611a0857565b60405162461bcd60e51b8152602060048201526013602482015272125b9d985b1a59081c1c9bdc1bdcd85b081251606a1b6044820152606490fd5b15611a4a57565b60405162461bcd60e51b815260206004820152601360248201527250726f706f73616c206e6f742061637469766560681b6044820152606490fd5b600382101561058d5752565b600260015414611aa2576002600155565b60405162461bcd60e51b815260206004820152601f60248201527f5265656e7472616e637947756172643a207265656e7472616e742063616c6c006044820152606490fd5b60025481111580611c63575b611afc90611a01565b600052600360205260408060002090805190611b17826117b9565b8254825260018301546001600160a01b0390811660208401528151611b4381610ad58160028901611707565b828401528151611b5a81610ad58160038901611707565b60608401526004840154608084015260058401549060a0840191825260068501549360c081019485526101a0600b60078801549760e08401988952600881015496610100850197885260098201549561012086019660ff811615158852611bcb60ff8260081c1661014089016119a1565b60101c1661016086015251611be781610ad581600a8601611707565b610180850152015491015251611c5a5751421115611c5257611c1890611c108351855190611994565b905190611994565b60065460148102908082046014149015171561069d57606490041115611c3f575050600290565b5190511015611c4d57600390565b600290565b505050600190565b50505050600490565b50801515611af356fea2646970667358221220a409ef525674c5ddedd5e284edb98d75716e4d79ac225e5310a274c0f05939a964736f6c63430008140033",
  "linkReferences": {},
  "deployedLinkReferences": {}
}