{
  "_format": "hh-sol-artifact-1",
  "contractName": "ProofOfReserves",
  "sourceName": "contracts/ProofOfReserves.sol",
  "abi": [
    {
      "anonymous": false,
      "inputs": [
        {
          "indexed": false,
          "internalType": "string",
          "name": "message",
          "type": "string"
        }
      ],
      "name": "Alert",
      "type": "event"
    },
    {
      "anonymous": false,
      "inputs": [
        {
          "indexed": false,
          "internalType": "bool",
          "name": "valid",
          "type": "bool"
        }
      ],
      "name": "ProofVerified",
      "type": "event"
    },
    {
      "inputs": [],
      "name": "circulatingSupply",
      "outputs": [
        {
          "internalType": "uint256",
          "name": "",
          "type": "uint256"
        }
      ],
      "stateMutability": "view",
      "type": "function"
    },
    {
      "inputs": [],
      "name": "merkleRoot",
      "outputs": [
        {
          "internalType": "bytes32",
          "name": "",
          "type": "bytes32"
        }
      ],
      "stateMutability": "view",
      "type": "function"
    },
    {
      "inputs": [
        {
          "internalType": "uint256",
          "name": "_supply",
          "type": "uint256"
        }
      ],
      "name": "setSupply",
      "outputs": [],
      "stateMutability": "nonpayable",
      "type": "function"
    },
    {
      "inputs": [
        {
          "internalType": "bytes32",
          "name": "_root",
          "type": "bytes32"
        }
      ],
      "name": "updateRoot",
      "outputs": [],
      "stateMutability": "nonpayable",
      "type": "function"
    },
    {
      "inputs": [
        {
          "internalType": "uint256",
          "name": "totalReserves",
          "type": "uint256"
        }
      ],
      "name": "verifyProof",
      "outputs": [],
      "stateMutability": "nonpayable",
      "type": "function"
    }
  ],
  "bytecode": "0x60808060405234610016576101cf908161001c8239f35b600080fdfe60806040818152600436101561001457600080fd5b600091823560e01c90816321ff99701461017f5781632eb4a7ab14610165575080633b4c4b25146101475780638b6958ff1461007a57639358928b1461005957600080fd5b346100765781600319360112610076576020906001549051908152f35b5080fd5b503461007657602036600319011261007657600154600435106100c45760207ff4d358772b552280f9395158c37bc77ddcbcdeaf62b20aa01276fb89d7ea1923915160018152a180f35b6060817ff4d358772b552280f9395158c37bc77ddcbcdeaf62b20aa01276fb89d7ea192360207fb42f912d2a6c6c7da83228b8b84b12578ffa4267ec2980110bcf1f59c08329869451868152a17f5265736572766573203c20537570706c7920646574656374656421000000000081519160208352601b6020840152820152a180f35b82346101625760203660031901126101625760043560015580f35b80fd5b839034610076578160031936011261007657602091548152f35b833461016257602036600319011261016257600435815580f3fea2646970667358221220f4d15722a69af2059d68c7a690662f0e1b174122b689431ad7930b8ffefd3a9a64736f6c63430008140033",
  "linkReferences": {},
  "deployedLinkReferences": {}
}