{
  "_format": "hh-sol-artifact-1",
  "contractName": "ProofOfReserves",
  "sourceName": "contracts/ProofOfReserves.sol",
  "abi": [
    {
      "anonymous": false,
      "inputs": [
        {
          "indexed": false,
          "internalType": "string",
          "name": "message",
          "type": "string"
        }
      ],
      "name": "Alert",
      "type": "event"
    },
    {
      "anonymous": false,
      "inputs": [
        {
          "indexed": false,
          "internalType": "bool",
          "name": "valid",
          "type": "bool"
        }
      ],
      "name": "ProofVerified",
      "type": "event"
    },
    {
      "inputs": [],
      "name": "circulatingSupply",
      "outputs": [
        {
          "internalType": "uint256",
          "name": "",
          "type": "uint256"
        }
      ],
      "stateMutability": "view",
      "type": "function"
    },
    {
      "inputs": [],
      "name": "merkleRoot",
      "outputs": [
        {
          "internalType": "bytes32",
          "name": "",
          "type": "bytes32"
        }
      ],
      "stateMutability": "view",
      "type": "function"
    },
    {
      "inputs": [
        {
          "internalType": "uint256",
          "name": "_supply",
          "type": "uint256"
        }
      ],
      "name": "setSupply",
      "outputs": [],
      "stateMutability": "nonpayable",
      "type": "function"
    },
    {
      "inputs": [
        {
          "internalType": "bytes32",
          "name": "_root",
          "type": "bytes32"
        }
      ],
      "name": "updateRoot",
      "outputs": [],
      "stateMutability": "nonpayable",
      "type": "function"
    },
    {
      "inputs": [
        {
          "internalType": "uint256",
          "name": "totalReserves",
          "type": "uint256"
        }
      ],
      "name": "verifyProof",
      "outputs": [],
      "stateMutability": "nonpayable",
      "type": "function"
    }
  ],
  "bytecode": "0x608060405234801561001057600080fd5b506103cb806100206000396000f3fe608060405234801561001057600080fd5b50600436106100575760003560e01c806321ff99701461005c5780632eb4a7ab146100785780633b4c4b25146100965780638b6958ff146100b25780639358928b146100ce575b600080fd5b610076600480360381019061007191906101fe565b6100ec565b005b6100806100f6565b60405161008d919061023a565b60405180910390f35b6100b060048036038101906100ab919061028b565b6100fc565b005b6100cc60048036038101906100c7919061028b565b610106565b005b6100d66101bd565b6040516100e391906102c7565b60405180910390f35b8060008190555050565b60005481565b8060018190555050565b600154811061014c577ff4d358772b552280f9395158c37bc77ddcbcdeaf62b20aa01276fb89d7ea1923600160405161013f91906102fd565b60405180910390a16101ba565b7ff4d358772b552280f9395158c37bc77ddcbcdeaf62b20aa01276fb89d7ea1923600060405161017c91906102fd565b60405180910390a17fb42f912d2a6c6c7da83228b8b84b12578ffa4267ec2980110bcf1f59c08329866040516101b190610375565b60405180910390a15b50565b60015481565b600080fd5b6000819050919050565b6101db816101c8565b81146101e657600080fd5b50565b6000813590506101f8816101d2565b92915050565b600060208284031215610214576102136101c3565b5b6000610222848285016101e9565b91505092915050565b610234816101c8565b82525050565b600060208201905061024f600083018461022b565b92915050565b6000819050919050565b61026881610255565b811461027357600080fd5b50565b6000813590506102858161025f565b92915050565b6000602082840312156102a1576102a06101c3565b5b60006102af84828501610276565b91505092915050565b6102c181610255565b82525050565b60006020820190506102dc60008301846102b8565b92915050565b60008115159050919050565b6102f7816102e2565b82525050565b600060208201905061031260008301846102ee565b92915050565b600082825260208201905092915050565b7f5265736572766573203c20537570706c79206465746563746564210000000000600082015250565b600061035f601b83610318565b915061036a82610329565b602082019050919050565b6000602082019050818103600083015261038e81610352565b905091905056fea2646970667358221220d672772b1b3f40dd1c6693116b221510b413b1d39c47d04ab7526b41f65b7af464736f6c63430008140033",
  "linkReferences": {},
  "deployedLinkReferences": {}
}