{"contracts/GovernanceDAO.sol":{"GovernanceDAO":{"abi":[{"inputs":[],"stateMutability":"nonpayable","type":"constructor"},{"anonymous":false,"inputs":[{"indexed":true,"internalType":"address","name":"previousOwner","type":"address"},{"indexed":true,"internalType":"address","name":"newOwner","type":"address"}],"name":"OwnershipTransferred","type":"event"},{"anonymous":false,"inputs":[{"indexed":true,"internalType":"uint256","name":"proposalId","type":"uint256"},{"indexed":true,"internalType":"address","name":"proposer","type":"address"},{"indexed":false,"internalType":"string","name":"title","type":"string"},{"indexed":false,"internalType":"string","name":"description","type":"string"},{"indexed":false,"internalType":"uint256","name":"startTime","type":"uint256"},{"indexed":false,"internalType":"uint256","name":"endTime","type":"uint256"}],"name":"ProposalCreated","type":"event"},{"anonymous":false,"inputs":[{"indexed":true,"internalType":"uint256","name":"proposalId","type":"uint256"}],"name":"ProposalExecuted","type":"event"},{"anonymous":false,"inputs":[{"indexed":true,"internalType":"uint256","name":"proposalId","type":"uint256"},{"indexed":false,"internalType":"enum GovernanceDAO.ProposalState","name":"newState","type":"uint8"}],"name":"ProposalStateChanged","type":"event"},{"anonymous":false,"inputs":[{"indexed":true,"internalType":"address","name":"voter","type":"address"},{"indexed":true,"internalType":"uint256","name":"proposalId","type":"uint256"},{"indexed":false,"internalType":"enum GovernanceDAO.VoteType","name":"vote","type":"uint8"},{"indexed":false,"internalType":"uint256","name":"weight","type":"uint256"}],"name":"VoteCast","type":"event"},{"inputs":[],"name":"PROPOSAL_THRESHOLD","outputs":[{"internalType":"uint256","name":"","type":"uint256"}],"stateMutability":"view","type":"function"},{"inputs":[],"name":"QUORUM_PERCENTAGE","outputs":[{"internalType":"uint256","name":"","type":"uint256"}],"stateMutability":"view","type":"function"},{"inputs":[],"name":"VOTING_DURATION","outputs":[{"internalType":"uint256","name":"","type":"uint256"}],"stateMutability":"view","type":"function"},{"inputs":[{"internalType":"address","name":"","type":"address"}],"name":"balances","outputs":[{"internalType":"uint256","name":"","type":"uint256"}],"stateMutability":"view","type":"function"},{"inputs":[{"internalType":"string","name":"title","type":"string"},{"internalType":"string","name":"description","type":"string"},{"internalType":"address","name":"target","type":"address"},{"internalType":"bytes","name":"data","type":"bytes"},{"internalType":"uint256","name":"value","type":"uint256"}],"name":"createProposal","outputs":[{"internalType":"uint256","name":"","type":"uint256"}],"stateMutability":"nonpayable","type":"function"},{"inputs":[{"internalType":"uint256","name":"proposalId","type":"uint256"}],"name":"emergencyPause","outputs":[],"stateMutability":"nonpayable","type":"function"},{"inputs":[{"internalType":"uint256","name":"proposalId","type":"uint256"}],"name":"executeProposal","outputs":[],"stateMutability":"nonpayable","type":"function"},{"inputs":[],"name":"getAllProposals","outputs":[{"internalType":"uint256[]","name":"","type":"uint256[]"}],"stateMutability":"view","type":"function"},{"inputs":[{"internalType":"uint256","name":"proposalId","type":"uint256"}],"name":"getProposal","outputs":[{"components":[{"internalType":"uint256","name":"id","type":"uint256"},{"internalType":"address","name":"proposer","type":"address"},{"internalType":"string","name":"title","type":"string"},{"internalType":"string","name":"description","type":"string"},{"internalType":"uint256","name":"startTime","type":"uint256"},{"internalType":"uint256","name":"endTime","type":"uint256"},{"internalType":"uint256","name":"forVotes","type":"uint256"},{"internalType":"uint256","name":"againstVotes","type":"uint256"},{"internalType":"uint256","name":"abstainVotes","type":"uint256"},{"internalType":"bool","name":"executed","type":"bool"},{"internalType":"enum GovernanceDAO.ProposalState","name":"state","type":"uint8"},{"internalType":"address","name":"target","type":"address"},{"internalType":"bytes","name":"data","type":"bytes"},{"internalType":"uint256","name":"value","type":"uint256"}],"internalType":"struct GovernanceDAO.Proposal","name":"","type":"tuple"}],"stateMutability":"view","type":"function"},{"inputs":[],"name":"getProposalCount","outputs":[{"internalType":"uint256","name":"","type":"uint256"}],"stateMutability":"view","type":"function"},{"inputs":[{"internalType":"uint256","name":"proposalId","type":"uint256"}],"name":"getProposalState","outputs":[{"internalType":"enum GovernanceDAO.ProposalState","name":"","type":"uint8"}],"stateMutability":"view","type":"function"},{"inputs":[{"internalType":"uint256","name":"proposalId","type":"uint256"},{"internalType":"address","name":"voter","type":"address"}],"name":"getVote","outputs":[{"components":[{"internalType":"bool","name":"hasVoted","type":"bool"},{"internalType":"enum GovernanceDAO.VoteType","name":"vote","type":"uint8"},{"internalType":"uint256","name":"weight","type":"uint256"}],"internalType":"struct GovernanceDAO.Vote","name":"","type":"tuple"}],"stateMutability":"view","type":"function"},{"inputs":[{"internalType":"uint256","name":"proposalId","type":"uint256"},{"internalType":"address","name":"voter","type":"address"}],"name":"hasVoted","outputs":[{"internalType":"bool","name":"","type":"bool"}],"stateMutability":"view","type":"function"},{"inputs":[],"name":"owner","outputs":[{"internalType":"address","name":"","type":"address"}],"stateMutability":"view","type":"function"},{"inputs":[{"internalType":"uint256","name":"","type":"uint256"}],"name":"proposalIds","outputs":[{"internalType":"uint256","name":"","type":"uint256"}],"stateMutability":"view","type":"function"},{"inputs":[{"internalType":"uint256","name":"","type":"uint256"}],"name":"proposals","outputs":[{"internalType":"uint256","name":"id","type":"uint256"},{"internalType":"address","name":"proposer","type":"address"},{"internalType":"string","name":"title","type":"string"},{"internalType":"string","name":"description","type":"string"},{"internalType":"uint256","name":"startTime","type":"uint256"},{"internalType":"uint256","name":"endTime","type":"uint256"},{"internalType":"uint256","name":"forVotes","type":"uint256"},{"internalType":"uint256","name":"againstVotes","type":"uint256"},{"internalType":"uint256","name":"abstainVotes","type":"uint256"},{"internalType":"bool","name":"executed","type":"bool"},{"internalType":"enum GovernanceDAO.ProposalState","name":"state","type":"uint8"},{"internalType":"address","name":"target","type":"address"},{"internalType":"bytes","name":"data","type":"bytes"},{"internalType":"uint256","name":"value","type":"uint256"}],"stateMutability":"view","type":"function"},{"inputs":[],"name":"renounceOwnership","outputs":[],"stateMutability":"nonpayable","type":"function"},{"inputs":[{"internalType":"address","name":"user","type":"address"},{"internalType":"uint256","name":"amount","type":"uint256"}],"name":"setBalance","outputs":[],"stateMutability":"nonpayable","type":"function"},{"inputs":[],"name":"totalSupply","outputs":[{"internalType":"uint256","name":"","type":"uint256"}],"stateMutability":"view","type":"function"},{"inputs":[{"internalType":"address","name":"newOwner","type":"address"}],"name":"transferOwnership","outputs":[],"stateMutability":"nonpayable","type":"function"},{"inputs":[{"internalType":"uint256","name":"proposalId","type":"uint256"},{"internalType":"enum GovernanceDAO.VoteType","name":"voteType","type":"uint8"}],"name":"vote","outputs":[],"stateMutability":"nonpayable","type":"function"},{"inputs":[{"internalType":"uint256","name":"","type":"uint256"},{"internalType":"address","name":"","type":"address"}],"name":"votes","outputs":[{"internalType":"bool","name":"hasVoted","type":"bool"},{"internalType":"enum GovernanceDAO.VoteType","name":"vote","type":"uint8"},{"internalType":"uint256","name":"weight","type":"uint256"}],"stateMutability":"view","type":"function"}],"evm":{"bytecode":{"linkReferences":{},"object":"6080806040523461005f5760008054336001600160a01b0319821681178355916001600160a01b03909116907f8be0079c531659141344cd1fd0a4f28419497f9722a3daafe3b4186f6b6457e09080a360018055611ca290816100658239f35b600080fdfe608080604052600436101561001357600080fd5b60003560e01c908163013cf08b14611582575080630d61b5191461124057806318160ddd1461122257806327e235e3146111e8578063438596321461119b578063715018a6146111425780638da5cb5b146111195780639080936f146110ec578063943e821614610e295780639b644a2314610df2578063a438d20814610dd4578063a6c2660314610db0578063ad3fbe3014610d49578063bc3f931f14610c99578063c08cc02d14610c7b578063c7f758a8146109ff578063cceb68f514610949578063d23254b4146108dd578063e30443bc14610873578063ee8a7c1514610857578063f2fde38b1461078e5763f7b2f7221461011157600080fd5b346107895760a03660031901126107895760043567ffffffffffffffff81116107895761014290369060040161191e565b60243567ffffffffffffffff81116107895761016290369060040161191e565b90604435906001600160a01b03821682036107895760643567ffffffffffffffff81116107895736602382011215610789576101a89036906024816004013591016118e7565b91336000526005602052683635c9adc5dea0000060406000205410610735578151156106f8578351156106b357600160025401928360025562093a804201421161069d57604051916101f9836117b9565b84835233602084015283604084015285606084015242608084015262093a80420160a0840152600060c0840152600060e084015260006101008401526000610120840152600161014084015260018060a01b03166101608301526101808201526084356101a0820152826000526003602052604060002090805182556001820160018060a01b036020830151166bffffffffffffffffffffffff60a01b825416179055604081015180519067ffffffffffffffff82116104fd5781906102cf826102c660028801546116cd565b600288016119ad565b602090601f831160011461062b57600092610620575b50508160011b916000199060031b1c19161760028301555b606081015180519067ffffffffffffffff82116104fd5781906103308261032760038801546116cd565b600388016119ad565b602090601f83116001146105ae576000926105a3575b50508160011b916000199060031b1c19161760038301555b6080810151600483015560a0810151600583015560c0810151600683015560e081015160078301556101008101516008830155600982016103b26101208301511515829060ff801983541691151516179055565b610140820151600581101561058d57815461ff0062010000600160b01b0361016086015160101b169260081b1690610100600160b01b03191617179055600a820161018082015180519067ffffffffffffffff82116104fd5761041f8261041985546116cd565b856119ad565b602090601f831160011461051e5791806101a09492600b9694600092610513575b50508160011b916000199060031b1c19161790555b0151910155600754680100000000000000008110156104fd577ffaa337366f7965edea73e5dda4e27a18008218bee177df73f82fc597a1f4dd086104dd6020956104a6846001889601600755611871565b81549060031b9086821b91600019901b19161790556104d0604051956080875260808701906117f8565b90858203888701526117f8565b9242604082015262093a80420160608201528033940390a3604051908152f35b634e487b7160e01b600052604160045260246000fd5b015190503880610440565b90601f198316918460005260206000209260005b8181106105755750926001928592600b98966101a098961061055c575b505050811b019055610455565b015160001960f88460031b161c1916905538808061054f565b92936020600181928786015181550195019301610532565b634e487b7160e01b600052602160045260246000fd5b015190503880610346565b9250600385016000526020600020906000935b601f1984168510610605576001945083601f198116106105ec575b505050811b01600383015561035e565b015160001960f88460031b161c191690553880806105dc565b818101518355602094850194600190930192909101906105c1565b0151905038806102e5565b9250600285016000526020600020906000935b601f1984168510610682576001945083601f19811610610669575b505050811b0160028301556102fd565b015160001960f88460031b161c19169055388080610659565b8181015183556020948501946001909301929091019061063e565b634e487b7160e01b600052601160045260246000fd5b60405162461bcd60e51b815260206004820152601b60248201527f4465736372697074696f6e2063616e6e6f7420626520656d70747900000000006044820152606490fd5b60405162461bcd60e51b81526020600482015260156024820152745469746c652063616e6e6f7420626520656d70747960581b6044820152606490fd5b60405162461bcd60e51b815260206004820152602660248201527f496e73756666696369656e7420746f6b656e7320746f206372656174652070726044820152651bdc1bdcd85b60d21b6064820152608490fd5b600080fd5b34610789576020366003190112610789576107a7611845565b6107af61193c565b6001600160a01b0390811690811561080357600054826bffffffffffffffffffffffff60a01b821617600055167f8be0079c531659141344cd1fd0a4f28419497f9722a3daafe3b4186f6b6457e0600080a3005b60405162461bcd60e51b815260206004820152602660248201527f4f776e61626c653a206e6577206f776e657220697320746865207a65726f206160448201526564647265737360d01b6064820152608490fd5b3461078957600036600319011261078957602060405160148152f35b346107895760403660031901126107895761088c611845565b6024359061089861193c565b6006549060018060a01b031690816000526005602052604060002054810390811161069d57826108c791611994565b6006556000526005602052604060002055600080f35b34610789576040366003190112610789576108f661185b565b600435600052600460205260406000209060018060a01b031660005260205260606040600020600181549101546109426040519260ff81161515845260ff602085019160081c166118be565b6040820152f35b3461078957600036600319011261078957604051806007548083526020809301809160076000527fa66cc928b5edb82af9bd49922954155ab7b0942694bea4ce44661d9a8736c6889060005b868282106109eb5786866109ab828803836117d6565b604051928392818401908285525180915260408401929160005b8281106109d457505050500390f35b8351855286955093810193928101926001016109c5565b835485529093019260019283019201610995565b346107895760203660031901126107895760006101a0604051610a21816117b9565b828152826020820152606060408201526060808201528260808201528260a08201528260c08201528260e082015282610100820152826101208201528261014082015282610160820152606061018082015201526002546004359081111580610c72575b610a8e90611a01565b60005260036020526040600020600b60405191610aaa836117b9565b8054835260018101546001600160a01b03166020840152604051610adc81610ad58160028601611707565b03826117d6565b6040840152604051610af581610ad58160038601611707565b606084015260048101546080840152600581015460a0840152600681015460c0840152600781015460e08401526008810154610100840152600981015460ff81161515610120850152610b5260ff8260081c1661014086016119a1565b60101c6001600160a01b0316610160840152604051610b7881610ad581600a8601611707565b61018084015201546101a08201526040518091602082528051602083015260018060a01b0360208201511660408301526101a0610c65610be2610bcc60408501516101c060608801526101e08701906117f8565b6060850151868203601f190160808801526117f8565b608084015160a086015260a084015160c086015260c084015160e086015260e08401516101008601526101008401516101208601526101208401511515610140860152610c39610140850151610160870190611838565b6101608401516001600160a01b031661018086810191909152840151858203601f1901848701526117f8565b9101516101c08301520390f35b50801515610a85565b34610789576000366003190112610789576020600254604051908152f35b3461078957604036600319011261078957610cb261185b565b600060408051610cc18161179d565b8281528260208201520152600435600052600460205260406000209060018060a01b03166000526020526060604060002060405190610cff8261179d565b610d41600182549260ff841615158552610d2360ff602087019560081c1685611a85565b015491604084019283526040519351151584525160208401906118be565b516040820152f35b3461078957602036600319011261078957600435610d6561193c565b806000526003602052600960406000200161020061ff00198254161790557fd6b3a81dd8b7dc419d8d0f20797397ea2eaba914386b89898aa638438803a1ec602060405160028152a2005b34610789576000366003190112610789576020604051683635c9adc5dea000008152f35b3461078957600036600319011261078957602060405162093a808152f35b346107895760203660031901126107895760043560075481101561078957610e1b602091611871565b90546040519160031b1c8152f35b346107895760403660031901126107895760246004358135600381101561078957610e52611a91565b3360005260209260058452604060002054156110b757600254831115806110ae575b610e7d90611a01565b826000526003845260406000209360ff600986015460081c1694600586101561109957610ead6001809714611a43565b60048101544210611061576005810154421161102f578460005260048252604060002033600052825260ff60406000205416610ffc5733600052600582526040600020549260405190610eff8261179d565b87825283820190610f108783611a85565b604083019186835288600052600486526040600020336000528652610f49604060002094511515859060ff801983541691151516179055565b51906003821015610fe85750825461ff00191660089190911b61ff00161782555190870155838603610fc057600601610f83838254611994565b90555b610f9360405180946118be565b8201527f2c9deb38f462962eadbd85a9d3a4120503ee091f1582eaaa10aa8c6797651d2960403392a38055005b83610fda57600701610fd3838254611994565b9055610f86565b600801610fd3838254611994565b634e487b7160e01b60009081526021600452fd5b50600d6064926040519262461bcd60e51b845260048401528201526c105b1c9958591e481d9bdd1959609a1b6044820152fd5b50600c6064926040519262461bcd60e51b845260048401528201526b159bdd1a5b99c8195b99195960a21b6044820152fd5b5060126064926040519262461bcd60e51b8452600484015282015271159bdd1a5b99c81b9bdd081cdd185c9d195960721b6044820152fd5b82634e487b7160e01b60005260216004526000fd5b50821515610e74565b83600f6064926040519262461bcd60e51b845260048401528201526e2737903b37ba34b733903837bbb2b960891b6044820152fd5b3461078957602036600319011261078957602061110a600435611ae7565b6111176040518092611838565bf35b34610789576000366003190112610789576000546040516001600160a01b039091168152602090f35b346107895760003660031901126107895761115b61193c565b600080546001600160a01b0319811682556001600160a01b03167f8be0079c531659141344cd1fd0a4f28419497f9722a3daafe3b4186f6b6457e08280a3005b34610789576040366003190112610789576111b461185b565b600435600052600460205260406000209060018060a01b0316600052602052602060ff604060002054166040519015158152f35b34610789576020366003190112610789576001600160a01b03611209611845565b1660005260056020526020604060002054604051908152f35b34610789576000366003190112610789576020600654604051908152f35b34610789576020806003193601126107895760043561125d611a91565b60025481111580611579575b61127290611a01565b8060005260038252604060002091600983019283549360ff8560081c1694600586101561058d576112a66001809714611a43565b600583015442111561153e5760ff16611506578360005260038352604060002060068101546007820154906112e96112de8383611994565b600885015490611994565b60065460148102908082046014149015171561069d5788947fd6b3a81dd8b7dc419d8d0f20797397ea2eaba914386b89898aa638438803a1ec94899460ff94606460099504116000146114d6575050808201805461ff0019166102001790555b015460081c1661135c6040518092611838565ba280549060ff8260081c16600581101561058d5760031461137c57858055005b60ff1991821686179081905560101c6001600160a01b031691826113ce575b505050507f712ae1383f79ac853f8d882153778e0260ef8f03b504e2866e0593e04d2b291f600080a28180808080858055005b600a600b82015491016040519260009180546113e9816116cd565b92818b169182156114c257505060011461148a575b5050916000939181859403925af13d15611485573d61141c816118cb565b9061142a60405192836117d6565b81526000833d92013e5b156114415780808061139b565b6064906040519062461bcd60e51b82526004820152601960248201527f50726f706f73616c20657865637574696f6e206661696c6564000000000000006044820152fd5b611434565b9091506000528460002085886000925b8484106114b057505050908301905081836113fe565b8054848801520191019088879161149a565b1686525050801515028301905081836113fe565b11156114f157808201805461ff001916610300179055611349565b808201805461ff001916610200179055611349565b60405162461bcd60e51b815260048101849052601060248201526f105b1c9958591e48195e1958dd5d195960821b6044820152606490fd5b60405162461bcd60e51b8152600481018590526013602482015272566f74696e67207374696c6c2061637469766560681b6044820152606490fd5b50801515611269565b34610789576020366003190112610789576004356000908152600360205260409020805460018201546001600160a01b0390811693919290826115c88160028501611707565b036115d390846117d6565b60405190816115e58160038601611707565b036115f090836117d6565b60048301549160058401546006850154600786015490600887015492600988015494604051988980600a83019061162691611707565b03611631908b6117d6565b600b0154996040519c8d9c8d5260208d01528b6101c06040819201528c01611658916117f8565b8b810360608d0152611669916117f8565b9660808b015260a08a015260c089015260e088015261010087015260ff8116151561012087015261014086018160081c60ff16906116a691611838565b60101c166101608501528381036101808501526116c2916117f8565b906101a08301520390f35b90600182811c921680156116fd575b60208310146116e757565b634e487b7160e01b600052602260045260246000fd5b91607f16916116dc565b9060009291805491611718836116cd565b91828252600193848116908160001461177a575060011461173a575b50505050565b90919394506000526020928360002092846000945b838610611766575050505001019038808080611734565b80548587018301529401938590820161174f565b9294505050602093945060ff191683830152151560051b01019038808080611734565b6060810190811067ffffffffffffffff8211176104fd57604052565b6101c0810190811067ffffffffffffffff8211176104fd57604052565b90601f8019910116810190811067ffffffffffffffff8211176104fd57604052565b919082519283825260005b848110611824575050826000602080949584010152601f8019910116010190565b602081830181015184830182015201611803565b90600582101561058d5752565b600435906001600160a01b038216820361078957565b602435906001600160a01b038216820361078957565b6007548110156118a85760076000527fa66cc928b5edb82af9bd49922954155ab7b0942694bea4ce44661d9a8736c6880190600090565b634e487b7160e01b600052603260045260246000fd5b90600382101561058d5752565b67ffffffffffffffff81116104fd57601f01601f191660200190565b9291926118f3826118cb565b9161190160405193846117d6565b829481845281830111610789578281602093846000960137010152565b9080601f8301121561078957816020611939933591016118e7565b90565b6000546001600160a01b0316330361195057565b606460405162461bcd60e51b815260206004820152602060248201527f4f776e61626c653a2063616c6c6572206973206e6f7420746865206f776e65726044820152fd5b9190820180921161069d57565b600582101561058d5752565b90601f81116119bb57505050565b600091825260208220906020601f850160051c830194106119f7575b601f0160051c01915b8281106119ec57505050565b8181556001016119e0565b90925082906119d7565b15611a0857565b60405162461bcd60e51b8152602060048201526013602482015272125b9d985b1a59081c1c9bdc1bdcd85b081251606a1b6044820152606490fd5b15611a4a57565b60405162461bcd60e51b815260206004820152601360248201527250726f706f73616c206e6f742061637469766560681b6044820152606490fd5b600382101561058d5752565b600260015414611aa2576002600155565b60405162461bcd60e51b815260206004820152601f60248201527f5265656e7472616e637947756172643a207265656e7472616e742063616c6c006044820152606490fd5b60025481111580611c63575b611afc90611a01565b600052600360205260408060002090805190611b17826117b9565b8254825260018301546001600160a01b0390811660208401528151611b4381610ad58160028901611707565b828401528151611b5a81610ad58160038901611707565b60608401526004840154608084015260058401549060a0840191825260068501549360c081019485526101a0600b60078801549760e08401988952600881015496610100850197885260098201549561012086019660ff811615158852611bcb60ff8260081c1661014089016119a1565b60101c1661016086015251611be781610ad581600a8601611707565b610180850152015491015251611c5a5751421115611c5257611c1890611c108351855190611994565b905190611994565b60065460148102908082046014149015171561069d57606490041115611c3f575050600290565b5190511015611c4d57600390565b600290565b505050600190565b50505050600490565b50801515611af356fea2646970667358221220a409ef525674c5ddedd5e284edb98d75716e4d79ac225e5310a274c0f05939a964736f6c63430008140033","opcodes":"PUSH1 0x80 DUP1 PUSH1 0x40 MSTORE CALLVALUE PUSH2 0x5F JUMPI PUSH1 0x0 DUP1 SLOAD CALLER PUSH1 0x1 PUSH1 0x1 PUSH1 0xA0 SHL SUB NOT DUP3 AND DUP2 OR DUP4 SSTORE SWAP2 PUSH1 0x1 PUSH1 0x1 PUSH1 0xA0 SHL SUB SWAP1 SWAP2 AND SWAP1 PUSH32 0x8BE0079C531659141344CD1FD0A4F28419497F9722A3DAAFE3B4186F6B6457E0 SWAP1 DUP1 LOG3 PUSH1 0x1 DUP1 SSTORE PUSH2 0x1CA2 SWAP1 DUP2 PUSH2 0x65 DUP3 CODECOPY RETURN JUMPDEST PUSH1 0x0 DUP1 REVERT INVALID PUSH1 0x80 DUP1 PUSH1 0x40 MSTORE PUSH1 0x4 CALLDATASIZE LT ISZERO PUSH2 0x13 JUMPI PUSH1 0x0 DUP1 REVERT JUMPDEST PUSH1 0x0 CALLDATALOAD PUSH1 0xE0 SHR SWAP1 DUP2 PUSH4 0x13CF08B EQ PUSH2 0x1582 JUMPI POP DUP1 PUSH4 0xD61B519 EQ PUSH2 0x1240 JUMPI DUP1 PUSH4 0x18160DDD EQ PUSH2 0x1222 JUMPI DUP1 PUSH4 0x27E235E3 EQ PUSH2 0x11E8 JUMPI DUP1 PUSH4 0x43859632 EQ PUSH2 0x119B JUMPI DUP1 PUSH4 0x715018A6 EQ PUSH2 0x1142 JUMPI DUP1 PUSH4 0x8DA5CB5B EQ PUSH2 0x1119 JUMPI DUP1 PUSH4 0x9080936F EQ PUSH2 0x10EC JUMPI DUP1 PUSH4 0x943E8216 EQ PUSH2 0xE29 JUMPI DUP1 PUSH4 0x9B644A23 EQ PUSH2 0xDF2 JUMPI DUP1 PUSH4 0xA438D208 EQ PUSH2 0xDD4 JUMPI DUP1 PUSH4 0xA6C26603 EQ PUSH2 0xDB0 JUMPI DUP1 PUSH4 0xAD3FBE30 EQ PUSH2 0xD49 JUMPI DUP1 PUSH4 0xBC3F931F EQ PUSH2 0xC99 JUMPI DUP1 PUSH4 0xC08CC02D EQ PUSH2 0xC7B JUMPI DUP1 PUSH4 0xC7F758A8 EQ PUSH2 0x9FF JUMPI DUP1 PUSH4 0xCCEB68F5 EQ PUSH2 0x949 JUMPI DUP1 PUSH4 0xD23254B4 EQ PUSH2 0x8DD JUMPI DUP1 PUSH4 0xE30443BC EQ PUSH2 0x873 JUMPI DUP1 PUSH4 0xEE8A7C15 EQ PUSH2 0x857 JUMPI DUP1 PUSH4 0xF2FDE38B EQ PUSH2 0x78E JUMPI PUSH4 0xF7B2F722 EQ PUSH2 0x111 JUMPI PUSH1 0x0 DUP1 REVERT JUMPDEST CALLVALUE PUSH2 0x789 JUMPI PUSH1 0xA0 CALLDATASIZE PUSH1 0x3 NOT ADD SLT PUSH2 0x789 JUMPI PUSH1 0x4 CALLDATALOAD PUSH8 0xFFFFFFFFFFFFFFFF DUP2 GT PUSH2 0x789 JUMPI PUSH2 0x142 SWAP1 CALLDATASIZE SWAP1 PUSH1 0x4 ADD PUSH2 0x191E JUMP JUMPDEST PUSH1 0x24 CALLDATALOAD PUSH8 0xFFFFFFFFFFFFFFFF DUP2 GT PUSH2 0x789 JUMPI PUSH2 0x162 SWAP1 CALLDATASIZE SWAP1 PUSH1 0x4 ADD PUSH2 0x191E JUMP JUMPDEST SWAP1 PUSH1 0x44 CALLDATALOAD SWAP1 PUSH1 0x1 PUSH1 0x1 PUSH1 0xA0 SHL SUB DUP3 AND DUP3 SUB PUSH2 0x789 JUMPI PUSH1 0x64 CALLDATALOAD PUSH8 0xFFFFFFFFFFFFFFFF DUP2 GT PUSH2 0x789 JUMPI CALLDATASIZE PUSH1 0x23 DUP3 ADD SLT ISZERO PUSH2 0x789 JUMPI PUSH2 0x1A8 SWAP1 CALLDATASIZE SWAP1 PUSH1 0x24 DUP2 PUSH1 0x4 ADD CALLDATALOAD SWAP2 ADD PUSH2 0x18E7 JUMP JUMPDEST SWAP2 CALLER PUSH1 0x0 MSTORE PUSH1 0x5 PUSH1 0x20 MSTORE PUSH9 0x3635C9ADC5DEA00000 PUSH1 0x40 PUSH1 0x0 KECCAK256 SLOAD LT PUSH2 0x735 JUMPI DUP2 MLOAD ISZERO PUSH2 0x6F8 JUMPI DUP4 MLOAD ISZERO PUSH2 0x6B3 JUMPI PUSH1 0x1 PUSH1 0x2 SLOAD ADD SWAP3 DUP4 PUSH1 0x2 SSTORE PUSH3 0x93A80 TIMESTAMP ADD TIMESTAMP GT PUSH2 0x69D JUMPI PUSH1 0x40 MLOAD SWAP2 PUSH2 0x1F9 DUP4 PUSH2 0x17B9 JUMP JUMPDEST DUP5 DUP4 MSTORE CALLER PUSH1 0x20 DUP5 ADD MSTORE DUP4 PUSH1 0x40 DUP5 ADD MSTORE DUP6 PUSH1 0x60 DUP5 ADD MSTORE TIMESTAMP PUSH1 0x80 DUP5 ADD MSTORE PUSH3 0x93A80 TIMESTAMP ADD PUSH1 0xA0 DUP5 ADD MSTORE PUSH1 0x0 PUSH1 0xC0 DUP5 ADD MSTORE PUSH1 0x0 PUSH1 0xE0 DUP5 ADD MSTORE PUSH1 0x0 PUSH2 0x100 DUP5 ADD MSTORE PUSH1 0x0 PUSH2 0x120 DUP5 ADD MSTORE PUSH1 0x1 PUSH2 0x140 DUP5 ADD MSTORE PUSH1 0x1 DUP1 PUSH1 0xA0 SHL SUB AND PUSH2 0x160 DUP4 ADD MSTORE PUSH2 0x180 DUP3 ADD MSTORE PUSH1 0x84 CALLDATALOAD PUSH2 0x1A0 DUP3 ADD MSTORE DUP3 PUSH1 0x0 MSTORE PUSH1 0x3 PUSH1 0x20 MSTORE PUSH1 0x40 PUSH1 0x0 KECCAK256 SWAP1 DUP1 MLOAD DUP3 SSTORE PUSH1 0x1 DUP3 ADD PUSH1 0x1 DUP1 PUSH1 0xA0 SHL SUB PUSH1 0x20 DUP4 ADD MLOAD AND PUSH12 0xFFFFFFFFFFFFFFFFFFFFFFFF PUSH1 0xA0 SHL DUP3 SLOAD AND OR SWAP1 SSTORE PUSH1 0x40 DUP2 ADD MLOAD DUP1 MLOAD SWAP1 PUSH8 0xFFFFFFFFFFFFFFFF DUP3 GT PUSH2 0x4FD JUMPI DUP2 SWAP1 PUSH2 0x2CF DUP3 PUSH2 0x2C6 PUSH1 0x2 DUP9 ADD SLOAD PUSH2 0x16CD JUMP JUMPDEST PUSH1 0x2 DUP9 ADD PUSH2 0x19AD JUMP JUMPDEST PUSH1 0x20 SWAP1 PUSH1 0x1F DUP4 GT PUSH1 0x1 EQ PUSH2 0x62B JUMPI PUSH1 0x0 SWAP3 PUSH2 0x620 JUMPI JUMPDEST POP POP DUP2 PUSH1 0x1 SHL SWAP2 PUSH1 0x0 NOT SWAP1 PUSH1 0x3 SHL SHR NOT AND OR PUSH1 0x2 DUP4 ADD SSTORE JUMPDEST PUSH1 0x60 DUP2 ADD MLOAD DUP1 MLOAD SWAP1 PUSH8 0xFFFFFFFFFFFFFFFF DUP3 GT PUSH2 0x4FD JUMPI DUP2 SWAP1 PUSH2 0x330 DUP3 PUSH2 0x327 PUSH1 0x3 DUP9 ADD SLOAD PUSH2 0x16CD JUMP JUMPDEST PUSH1 0x3 DUP9 ADD PUSH2 0x19AD JUMP JUMPDEST PUSH1 0x20 SWAP1 PUSH1 0x1F DUP4 GT PUSH1 0x1 EQ PUSH2 0x5AE JUMPI PUSH1 0x0 SWAP3 PUSH2 0x5A3 JUMPI JUMPDEST POP POP DUP2 PUSH1 0x1 SHL SWAP2 PUSH1 0x0 NOT SWAP1 PUSH1 0x3 SHL SHR NOT AND OR PUSH1 0x3 DUP4 ADD SSTORE JUMPDEST PUSH1 0x80 DUP2 ADD MLOAD PUSH1 0x4 DUP4 ADD SSTORE PUSH1 0xA0 DUP2 ADD MLOAD PUSH1 0x5 DUP4 ADD SSTORE PUSH1 0xC0 DUP2 ADD MLOAD PUSH1 0x6 DUP4 ADD SSTORE PUSH1 0xE0 DUP2 ADD MLOAD PUSH1 0x7 DUP4 ADD SSTORE PUSH2 0x100 DUP2 ADD MLOAD PUSH1 0x8 DUP4 ADD SSTORE PUSH1 0x9 DUP3 ADD PUSH2 0x3B2 PUSH2 0x120 DUP4 ADD MLOAD ISZERO ISZERO DUP3 SWAP1 PUSH1 0xFF DUP1 NOT DUP4 SLOAD AND SWAP2 ISZERO ISZERO AND OR SWAP1 SSTORE JUMP JUMPDEST PUSH2 0x140 DUP3 ADD MLOAD PUSH1 0x5 DUP2 LT ISZERO PUSH2 0x58D JUMPI DUP2 SLOAD PUSH2 0xFF00 PUSH3 0x10000 PUSH1 0x1 PUSH1 0xB0 SHL SUB PUSH2 0x160 DUP7 ADD MLOAD PUSH1 0x10 SHL AND SWAP3 PUSH1 0x8 SHL AND SWAP1 PUSH2 0x100 PUSH1 0x1 PUSH1 0xB0 SHL SUB NOT AND OR OR SWAP1 SSTORE PUSH1 0xA DUP3 ADD PUSH2 0x180 DUP3 ADD MLOAD DUP1 MLOAD SWAP1 PUSH8 0xFFFFFFFFFFFFFFFF DUP3 GT PUSH2 0x4FD JUMPI PUSH2 0x41F DUP3 PUSH2 0x419 DUP6 SLOAD PUSH2 0x16CD JUMP JUMPDEST DUP6 PUSH2 0x19AD JUMP JUMPDEST PUSH1 0x20 SWAP1 PUSH1 0x1F DUP4 GT PUSH1 0x1 EQ PUSH2 0x51E JUMPI SWAP2 DUP1 PUSH2 0x1A0 SWAP5 SWAP3 PUSH1 0xB SWAP7 SWAP5 PUSH1 0x0 SWAP3 PUSH2 0x513 JUMPI JUMPDEST POP POP DUP2 PUSH1 0x1 SHL SWAP2 PUSH1 0x0 NOT SWAP1 PUSH1 0x3 SHL SHR NOT AND OR SWAP1 SSTORE JUMPDEST ADD MLOAD SWAP2 ADD SSTORE PUSH1 0x7 SLOAD PUSH9 0x10000000000000000 DUP2 LT ISZERO PUSH2 0x4FD JUMPI PUSH32 0xFAA337366F7965EDEA73E5DDA4E27A18008218BEE177DF73F82FC597A1F4DD08 PUSH2 0x4DD PUSH1 0x20 SWAP6 PUSH2 0x4A6 DUP5 PUSH1 0x1 DUP9 SWAP7 ADD PUSH1 0x7 SSTORE PUSH2 0x1871 JUMP JUMPDEST DUP2 SLOAD SWAP1 PUSH1 0x3 SHL SWAP1 DUP7 DUP3 SHL SWAP2 PUSH1 0x0 NOT SWAP1 SHL NOT AND OR SWAP1 SSTORE PUSH2 0x4D0 PUSH1 0x40 MLOAD SWAP6 PUSH1 0x80 DUP8 MSTORE PUSH1 0x80 DUP8 ADD SWAP1 PUSH2 0x17F8 JUMP JUMPDEST SWAP1 DUP6 DUP3 SUB DUP9 DUP8 ADD MSTORE PUSH2 0x17F8 JUMP JUMPDEST SWAP3 TIMESTAMP PUSH1 0x40 DUP3 ADD MSTORE PUSH3 0x93A80 TIMESTAMP ADD PUSH1 0x60 DUP3 ADD MSTORE DUP1 CALLER SWAP5 SUB SWAP1 LOG3 PUSH1 0x40 MLOAD SWAP1 DUP2 MSTORE RETURN JUMPDEST PUSH4 0x4E487B71 PUSH1 0xE0 SHL PUSH1 0x0 MSTORE PUSH1 0x41 PUSH1 0x4 MSTORE PUSH1 0x24 PUSH1 0x0 REVERT JUMPDEST ADD MLOAD SWAP1 POP CODESIZE DUP1 PUSH2 0x440 JUMP JUMPDEST SWAP1 PUSH1 0x1F NOT DUP4 AND SWAP2 DUP5 PUSH1 0x0 MSTORE PUSH1 0x20 PUSH1 0x0 KECCAK256 SWAP3 PUSH1 0x0 JUMPDEST DUP2 DUP2 LT PUSH2 0x575 JUMPI POP SWAP3 PUSH1 0x1 SWAP3 DUP6 SWAP3 PUSH1 0xB SWAP9 SWAP7 PUSH2 0x1A0 SWAP9 SWAP7 LT PUSH2 0x55C JUMPI JUMPDEST POP POP POP DUP2 SHL ADD SWAP1 SSTORE PUSH2 0x455 JUMP JUMPDEST ADD MLOAD PUSH1 0x0 NOT PUSH1 0xF8 DUP5 PUSH1 0x3 SHL AND SHR NOT AND SWAP1 SSTORE CODESIZE DUP1 DUP1 PUSH2 0x54F JUMP JUMPDEST SWAP3 SWAP4 PUSH1 0x20 PUSH1 0x1 DUP2 SWAP3 DUP8 DUP7 ADD MLOAD DUP2 SSTORE ADD SWAP6 ADD SWAP4 ADD PUSH2 0x532 JUMP JUMPDEST PUSH4 0x4E487B71 PUSH1 0xE0 SHL PUSH1 0x0 MSTORE PUSH1 0x21 PUSH1 0x4 MSTORE PUSH1 0x24 PUSH1 0x0 REVERT JUMPDEST ADD MLOAD SWAP1 POP CODESIZE DUP1 PUSH2 0x346 JUMP JUMPDEST SWAP3 POP PUSH1 0x3 DUP6 ADD PUSH1 0x0 MSTORE PUSH1 0x20 PUSH1 0x0 KECCAK256 SWAP1 PUSH1 0x0 SWAP4 JUMPDEST PUSH1 0x1F NOT DUP5 AND DUP6 LT PUSH2 0x605 JUMPI PUSH1 0x1 SWAP5 POP DUP4 PUSH1 0x1F NOT DUP2 AND LT PUSH2 0x5EC JUMPI JUMPDEST POP POP POP DUP2 SHL ADD PUSH1 0x3 DUP4 ADD SSTORE PUSH2 0x35E JUMP JUMPDEST ADD MLOAD PUSH1 0x0 NOT PUSH1 0xF8 DUP5 PUSH1 0x3 SHL AND SHR NOT AND SWAP1 SSTORE CODESIZE DUP1 DUP1 PUSH2 0x5DC JUMP JUMPDEST DUP2 DUP2 ADD MLOAD DUP4 SSTORE PUSH1 0x20 SWAP5 DUP6 ADD SWAP5 PUSH1 0x1 SWAP1 SWAP4 ADD SWAP3 SWAP1 SWAP2 ADD SWAP1 PUSH2 0x5C1 JUMP JUMPDEST ADD MLOAD SWAP1 POP CODESIZE DUP1 PUSH2 0x2E5 JUMP JUMPDEST SWAP3 POP PUSH1 0x2 DUP6 ADD PUSH1 0x0 MSTORE PUSH1 0x20 PUSH1 0x0 KECCAK256 SWAP1 PUSH1 0x0 SWAP4 JUMPDEST PUSH1 0x1F NOT DUP5 AND DUP6 LT PUSH2 0x682 JUMPI PUSH1 0x1 SWAP5 POP DUP4 PUSH1 0x1F NOT DUP2 AND LT PUSH2 0x669 JUMPI JUMPDEST POP POP POP DUP2 SHL ADD PUSH1 0x2 DUP4 ADD SSTORE PUSH2 0x2FD JUMP JUMPDEST ADD MLOAD PUSH1 0x0 NOT PUSH1 0xF8 DUP5 PUSH1 0x3 SHL AND SHR NOT AND SWAP1 SSTORE CODESIZE DUP1 DUP1 PUSH2 0x659 JUMP JUMPDEST DUP2 DUP2 ADD MLOAD DUP4 SSTORE PUSH1 0x20 SWAP5 DUP6 ADD SWAP5 PUSH1 0x1 SWAP1 SWAP4 ADD SWAP3 SWAP1 SWAP2 ADD SWAP1 PUSH2 0x63E JUMP JUMPDEST PUSH4 0x4E487B71 PUSH1 0xE0 SHL PUSH1 0x0 MSTORE PUSH1 0x11 PUSH1 0x4 MSTORE PUSH1 0x24 PUSH1 0x0 REVERT JUMPDEST PUSH1 0x40 MLOAD PUSH3 0x461BCD PUSH1 0xE5 SHL DUP2 MSTORE PUSH1 0x20 PUSH1 0x4 DUP3 ADD MSTORE PUSH1 0x1B PUSH1 0x24 DUP3 ADD MSTORE PUSH32 0x4465736372697074696F6E2063616E6E6F7420626520656D7074790000000000 PUSH1 0x44 DUP3 ADD MSTORE PUSH1 0x64 SWAP1 REVERT JUMPDEST PUSH1 0x40 MLOAD PUSH3 0x461BCD PUSH1 0xE5 SHL DUP2 MSTORE PUSH1 0x20 PUSH1 0x4 DUP3 ADD MSTORE PUSH1 0x15 PUSH1 0x24 DUP3 ADD MSTORE PUSH21 0x5469746C652063616E6E6F7420626520656D707479 PUSH1 0x58 SHL PUSH1 0x44 DUP3 ADD MSTORE PUSH1 0x64 SWAP1 REVERT JUMPDEST PUSH1 0x40 MLOAD PUSH3 0x461BCD PUSH1 0xE5 SHL DUP2 MSTORE PUSH1 0x20 PUSH1 0x4 DUP3 ADD MSTORE PUSH1 0x26 PUSH1 0x24 DUP3 ADD MSTORE PUSH32 0x496E73756666696369656E7420746F6B656E7320746F20637265617465207072 PUSH1 0x44 DUP3 ADD MSTORE PUSH6 0x1BDC1BDCD85B PUSH1 0xD2 SHL PUSH1 0x64 DUP3 ADD MSTORE PUSH1 0x84 SWAP1 REVERT JUMPDEST PUSH1 0x0 DUP1 REVERT JUMPDEST CALLVALUE PUSH2 0x789 JUMPI PUSH1 0x20 CALLDATASIZE PUSH1 0x3 NOT ADD SLT PUSH2 0x789 JUMPI PUSH2 0x7A7 PUSH2 0x1845 JUMP JUMPDEST PUSH2 0x7AF PUSH2 0x193C JUMP JUMPDEST PUSH1 0x1 PUSH1 0x1 PUSH1 0xA0 SHL SUB SWAP1 DUP2 AND SWAP1 DUP2 ISZERO PUSH2 0x803 JUMPI PUSH1 0x0 SLOAD DUP3 PUSH12 0xFFFFFFFFFFFFFFFFFFFFFFFF PUSH1 0xA0 SHL DUP3 AND OR PUSH1 0x0 SSTORE AND PUSH32 0x8BE0079C531659141344CD1FD0A4F28419497F9722A3DAAFE3B4186F6B6457E0 PUSH1 0x0 DUP1 LOG3 STOP JUMPDEST PUSH1 0x40 MLOAD PUSH3 0x461BCD PUSH1 0xE5 SHL DUP2 MSTORE PUSH1 0x20 PUSH1 0x4 DUP3 ADD MSTORE PUSH1 0x26 PUSH1 0x24 DUP3 ADD MSTORE PUSH32 0x4F776E61626C653A206E6577206F776E657220697320746865207A65726F2061 PUSH1 0x44 DUP3 ADD MSTORE PUSH6 0x646472657373 PUSH1 0xD0 SHL PUSH1 0x64 DUP3 ADD MSTORE PUSH1 0x84 SWAP1 REVERT JUMPDEST CALLVALUE PUSH2 0x789 JUMPI PUSH1 0x0 CALLDATASIZE PUSH1 0x3 NOT ADD SLT PUSH2 0x789 JUMPI PUSH1 0x20 PUSH1 0x40 MLOAD PUSH1 0x14 DUP2 MSTORE RETURN JUMPDEST CALLVALUE PUSH2 0x789 JUMPI PUSH1 0x40 CALLDATASIZE PUSH1 0x3 NOT ADD SLT PUSH2 0x789 JUMPI PUSH2 0x88C PUSH2 0x1845 JUMP JUMPDEST PUSH1 0x24 CALLDATALOAD SWAP1 PUSH2 0x898 PUSH2 0x193C JUMP JUMPDEST PUSH1 0x6 SLOAD SWAP1 PUSH1 0x1 DUP1 PUSH1 0xA0 SHL SUB AND SWAP1 DUP2 PUSH1 0x0 MSTORE PUSH1 0x5 PUSH1 0x20 MSTORE PUSH1 0x40 PUSH1 0x0 KECCAK256 SLOAD DUP2 SUB SWAP1 DUP2 GT PUSH2 0x69D JUMPI DUP3 PUSH2 0x8C7 SWAP2 PUSH2 0x1994 JUMP JUMPDEST PUSH1 0x6 SSTORE PUSH1 0x0 MSTORE PUSH1 0x5 PUSH1 0x20 MSTORE PUSH1 0x40 PUSH1 0x0 KECCAK256 SSTORE PUSH1 0x0 DUP1 RETURN JUMPDEST CALLVALUE PUSH2 0x789 JUMPI PUSH1 0x40 CALLDATASIZE PUSH1 0x3 NOT ADD SLT PUSH2 0x789 JUMPI PUSH2 0x8F6 PUSH2 0x185B JUMP JUMPDEST PUSH1 0x4 CALLDATALOAD PUSH1 0x0 MSTORE PUSH1 0x4 PUSH1 0x20 MSTORE PUSH1 0x40 PUSH1 0x0 KECCAK256 SWAP1 PUSH1 0x1 DUP1 PUSH1 0xA0 SHL SUB AND PUSH1 0x0 MSTORE PUSH1 0x20 MSTORE PUSH1 0x60 PUSH1 0x40 PUSH1 0x0 KECCAK256 PUSH1 0x1 DUP2 SLOAD SWAP2 ADD SLOAD PUSH2 0x942 PUSH1 0x40 MLOAD SWAP3 PUSH1 0xFF DUP2 AND ISZERO ISZERO DUP5 MSTORE PUSH1 0xFF PUSH1 0x20 DUP6 ADD SWAP2 PUSH1 0x8 SHR AND PUSH2 0x18BE JUMP JUMPDEST PUSH1 0x40 DUP3 ADD MSTORE RETURN JUMPDEST CALLVALUE PUSH2 0x789 JUMPI PUSH1 0x0 CALLDATASIZE PUSH1 0x3 NOT ADD SLT PUSH2 0x789 JUMPI PUSH1 0x40 MLOAD DUP1 PUSH1 0x7 SLOAD DUP1 DUP4 MSTORE PUSH1 0x20 DUP1 SWAP4 ADD DUP1 SWAP2 PUSH1 0x7 PUSH1 0x0 MSTORE PUSH32 0xA66CC928B5EDB82AF9BD49922954155AB7B0942694BEA4CE44661D9A8736C688 SWAP1 PUSH1 0x0 JUMPDEST DUP7 DUP3 DUP3 LT PUSH2 0x9EB JUMPI DUP7 DUP7 PUSH2 0x9AB DUP3 DUP9 SUB DUP4 PUSH2 0x17D6 JUMP JUMPDEST PUSH1 0x40 MLOAD SWAP3 DUP4 SWAP3 DUP2 DUP5 ADD SWAP1 DUP3 DUP6 MSTORE MLOAD DUP1 SWAP2 MSTORE PUSH1 0x40 DUP5 ADD SWAP3 SWAP2 PUSH1 0x0 JUMPDEST DUP3 DUP2 LT PUSH2 0x9D4 JUMPI POP POP POP POP SUB SWAP1 RETURN JUMPDEST DUP4 MLOAD DUP6 MSTORE DUP7 SWAP6 POP SWAP4 DUP2 ADD SWAP4 SWAP3 DUP2 ADD SWAP3 PUSH1 0x1 ADD PUSH2 0x9C5 JUMP JUMPDEST DUP4 SLOAD DUP6 MSTORE SWAP1 SWAP4 ADD SWAP3 PUSH1 0x1 SWAP3 DUP4 ADD SWAP3 ADD PUSH2 0x995 JUMP JUMPDEST CALLVALUE PUSH2 0x789 JUMPI PUSH1 0x20 CALLDATASIZE PUSH1 0x3 NOT ADD SLT PUSH2 0x789 JUMPI PUSH1 0x0 PUSH2 0x1A0 PUSH1 0x40 MLOAD PUSH2 0xA21 DUP2 PUSH2 0x17B9 JUMP JUMPDEST DUP3 DUP2 MSTORE DUP3 PUSH1 0x20 DUP3 ADD MSTORE PUSH1 0x60 PUSH1 0x40 DUP3 ADD MSTORE PUSH1 0x60 DUP1 DUP3 ADD MSTORE DUP3 PUSH1 0x80 DUP3 ADD MSTORE DUP3 PUSH1 0xA0 DUP3 ADD MSTORE DUP3 PUSH1 0xC0 DUP3 ADD MSTORE DUP3 PUSH1 0xE0 DUP3 ADD MSTORE DUP3 PUSH2 0x100 DUP3 ADD MSTORE DUP3 PUSH2 0x120 DUP3 ADD MSTORE DUP3 PUSH2 0x140 DUP3 ADD MSTORE DUP3 PUSH2 0x160 DUP3 ADD MSTORE PUSH1 0x60 PUSH2 0x180 DUP3 ADD MSTORE ADD MSTORE PUSH1 0x2 SLOAD PUSH1 0x4 CALLDATALOAD SWAP1 DUP2 GT ISZERO DUP1 PUSH2 0xC72 JUMPI JUMPDEST PUSH2 0xA8E SWAP1 PUSH2 0x1A01 JUMP JUMPDEST PUSH1 0x0 MSTORE PUSH1 0x3 PUSH1 0x20 MSTORE PUSH1 0x40 PUSH1 0x0 KECCAK256 PUSH1 0xB PUSH1 0x40 MLOAD SWAP2 PUSH2 0xAAA DUP4 PUSH2 0x17B9 JUMP JUMPDEST DUP1 SLOAD DUP4 MSTORE PUSH1 0x1 DUP2 ADD SLOAD PUSH1 0x1 PUSH1 0x1 PUSH1 0xA0 SHL SUB AND PUSH1 0x20 DUP5 ADD MSTORE PUSH1 0x40 MLOAD PUSH2 0xADC DUP2 PUSH2 0xAD5 DUP2 PUSH1 0x2 DUP7 ADD PUSH2 0x1707 JUMP JUMPDEST SUB DUP3 PUSH2 0x17D6 JUMP JUMPDEST PUSH1 0x40 DUP5 ADD MSTORE PUSH1 0x40 MLOAD PUSH2 0xAF5 DUP2 PUSH2 0xAD5 DUP2 PUSH1 0x3 DUP7 ADD PUSH2 0x1707 JUMP JUMPDEST PUSH1 0x60 DUP5 ADD MSTORE PUSH1 0x4 DUP2 ADD SLOAD PUSH1 0x80 DUP5 ADD MSTORE PUSH1 0x5 DUP2 ADD SLOAD PUSH1 0xA0 DUP5 ADD MSTORE PUSH1 0x6 DUP2 ADD SLOAD PUSH1 0xC0 DUP5 ADD MSTORE PUSH1 0x7 DUP2 ADD SLOAD PUSH1 0xE0 DUP5 ADD MSTORE PUSH1 0x8 DUP2 ADD SLOAD PUSH2 0x100 DUP5 ADD MSTORE PUSH1 0x9 DUP2 ADD SLOAD PUSH1 0xFF DUP2 AND ISZERO ISZERO PUSH2 0x120 DUP6 ADD MSTORE PUSH2 0xB52 PUSH1 0xFF DUP3 PUSH1 0x8 SHR AND PUSH2 0x140 DUP7 ADD PUSH2 0x19A1 JUMP JUMPDEST PUSH1 0x10 SHR PUSH1 0x1 PUSH1 0x1 PUSH1 0xA0 SHL SUB AND PUSH2 0x160 DUP5 ADD MSTORE PUSH1 0x40 MLOAD PUSH2 0xB78 DUP2 PUSH2 0xAD5 DUP2 PUSH1 0xA DUP7 ADD PUSH2 0x1707 JUMP JUMPDEST PUSH2 0x180 DUP5 ADD MSTORE ADD SLOAD PUSH2 0x1A0 DUP3 ADD MSTORE PUSH1 0x40 MLOAD DUP1 SWAP2 PUSH1 0x20 DUP3 MSTORE DUP1 MLOAD PUSH1 0x20 DUP4 ADD MSTORE PUSH1 0x1 DUP1 PUSH1 0xA0 SHL SUB PUSH1 0x20 DUP3 ADD MLOAD AND PUSH1 0x40 DUP4 ADD MSTORE PUSH2 0x1A0 PUSH2 0xC65 PUSH2 0xBE2 PUSH2 0xBCC PUSH1 0x40 DUP6 ADD MLOAD PUSH2 0x1C0 PUSH1 0x60 DUP9 ADD MSTORE PUSH2 0x1E0 DUP8 ADD SWAP1 PUSH2 0x17F8 JUMP JUMPDEST PUSH1 0x60 DUP6 ADD MLOAD DUP7 DUP3 SUB PUSH1 0x1F NOT ADD PUSH1 0x80 DUP9 ADD MSTORE PUSH2 0x17F8 JUMP JUMPDEST PUSH1 0x80 DUP5 ADD MLOAD PUSH1 0xA0 DUP7 ADD MSTORE PUSH1 0xA0 DUP5 ADD MLOAD PUSH1 0xC0 DUP7 ADD MSTORE PUSH1 0xC0 DUP5 ADD MLOAD PUSH1 0xE0 DUP7 ADD MSTORE PUSH1 0xE0 DUP5 ADD MLOAD PUSH2 0x100 DUP7 ADD MSTORE PUSH2 0x100 DUP5 ADD MLOAD PUSH2 0x120 DUP7 ADD MSTORE PUSH2 0x120 DUP5 ADD MLOAD ISZERO ISZERO PUSH2 0x140 DUP7 ADD MSTORE PUSH2 0xC39 PUSH2 0x140 DUP6 ADD MLOAD PUSH2 0x160 DUP8 ADD SWAP1 PUSH2 0x1838 JUMP JUMPDEST PUSH2 0x160 DUP5 ADD MLOAD PUSH1 0x1 PUSH1 0x1 PUSH1 0xA0 SHL SUB AND PUSH2 0x180 DUP7 DUP2 ADD SWAP2 SWAP1 SWAP2 MSTORE DUP5 ADD MLOAD DUP6 DUP3 SUB PUSH1 0x1F NOT ADD DUP5 DUP8 ADD MSTORE PUSH2 0x17F8 JUMP JUMPDEST SWAP2 ADD MLOAD PUSH2 0x1C0 DUP4 ADD MSTORE SUB SWAP1 RETURN JUMPDEST POP DUP1 ISZERO ISZERO PUSH2 0xA85 JUMP JUMPDEST CALLVALUE PUSH2 0x789 JUMPI PUSH1 0x0 CALLDATASIZE PUSH1 0x3 NOT ADD SLT PUSH2 0x789 JUMPI PUSH1 0x20 PUSH1 0x2 SLOAD PUSH1 0x40 MLOAD SWAP1 DUP2 MSTORE RETURN JUMPDEST CALLVALUE PUSH2 0x789 JUMPI PUSH1 0x40 CALLDATASIZE PUSH1 0x3 NOT ADD SLT PUSH2 0x789 JUMPI PUSH2 0xCB2 PUSH2 0x185B JUMP JUMPDEST PUSH1 0x0 PUSH1 0x40 DUP1 MLOAD PUSH2 0xCC1 DUP2 PUSH2 0x179D JUMP JUMPDEST DUP3 DUP2 MSTORE DUP3 PUSH1 0x20 DUP3 ADD MSTORE ADD MSTORE PUSH1 0x4 CALLDATALOAD PUSH1 0x0 MSTORE PUSH1 0x4 PUSH1 0x20 MSTORE PUSH1 0x40 PUSH1 0x0 KECCAK256 SWAP1 PUSH1 0x1 DUP1 PUSH1 0xA0 SHL SUB AND PUSH1 0x0 MSTORE PUSH1 0x20 MSTORE PUSH1 0x60 PUSH1 0x40 PUSH1 0x0 KECCAK256 PUSH1 0x40 MLOAD SWAP1 PUSH2 0xCFF DUP3 PUSH2 0x179D JUMP JUMPDEST PUSH2 0xD41 PUSH1 0x1 DUP3 SLOAD SWAP3 PUSH1 0xFF DUP5 AND ISZERO ISZERO DUP6 MSTORE PUSH2 0xD23 PUSH1 0xFF PUSH1 0x20 DUP8 ADD SWAP6 PUSH1 0x8 SHR AND DUP6 PUSH2 0x1A85 JUMP JUMPDEST ADD SLOAD SWAP2 PUSH1 0x40 DUP5 ADD SWAP3 DUP4 MSTORE PUSH1 0x40 MLOAD SWAP4 MLOAD ISZERO ISZERO DUP5 MSTORE MLOAD PUSH1 0x20 DUP5 ADD SWAP1 PUSH2 0x18BE JUMP JUMPDEST MLOAD PUSH1 0x40 DUP3 ADD MSTORE RETURN JUMPDEST CALLVALUE PUSH2 0x789 JUMPI PUSH1 0x20 CALLDATASIZE PUSH1 0x3 NOT ADD SLT PUSH2 0x789 JUMPI PUSH1 0x4 CALLDATALOAD PUSH2 0xD65 PUSH2 0x193C JUMP JUMPDEST DUP1 PUSH1 0x0 MSTORE PUSH1 0x3 PUSH1 0x20 MSTORE PUSH1 0x9 PUSH1 0x40 PUSH1 0x0 KECCAK256 ADD PUSH2 0x200 PUSH2 0xFF00 NOT DUP3 SLOAD AND OR SWAP1 SSTORE PUSH32 0xD6B3A81DD8B7DC419D8D0F20797397EA2EABA914386B89898AA638438803A1EC PUSH1 0x20 PUSH1 0x40 MLOAD PUSH1 0x2 DUP2 MSTORE LOG2 STOP JUMPDEST CALLVALUE PUSH2 0x789 JUMPI PUSH1 0x0 CALLDATASIZE PUSH1 0x3 NOT ADD SLT PUSH2 0x789 JUMPI PUSH1 0x20 PUSH1 0x40 MLOAD PUSH9 0x3635C9ADC5DEA00000 DUP2 MSTORE RETURN JUMPDEST CALLVALUE PUSH2 0x789 JUMPI PUSH1 0x0 CALLDATASIZE PUSH1 0x3 NOT ADD SLT PUSH2 0x789 JUMPI PUSH1 0x20 PUSH1 0x40 MLOAD PUSH3 0x93A80 DUP2 MSTORE RETURN JUMPDEST CALLVALUE PUSH2 0x789 JUMPI PUSH1 0x20 CALLDATASIZE PUSH1 0x3 NOT ADD SLT PUSH2 0x789 JUMPI PUSH1 0x4 CALLDATALOAD PUSH1 0x7 SLOAD DUP2 LT ISZERO PUSH2 0x789 JUMPI PUSH2 0xE1B PUSH1 0x20 SWAP2 PUSH2 0x1871 JUMP JUMPDEST SWAP1 SLOAD PUSH1 0x40 MLOAD SWAP2 PUSH1 0x3 SHL SHR DUP2 MSTORE RETURN JUMPDEST CALLVALUE PUSH2 0x789 JUMPI PUSH1 0x40 CALLDATASIZE PUSH1 0x3 NOT ADD SLT PUSH2 0x789 JUMPI PUSH1 0x24 PUSH1 0x4 CALLDATALOAD DUP2 CALLDATALOAD PUSH1 0x3 DUP2 LT ISZERO PUSH2 0x789 JUMPI PUSH2 0xE52 PUSH2 0x1A91 JUMP JUMPDEST CALLER PUSH1 0x0 MSTORE PUSH1 0x20 SWAP3 PUSH1 0x5 DUP5 MSTORE PUSH1 0x40 PUSH1 0x0 KECCAK256 SLOAD ISZERO PUSH2 0x10B7 JUMPI PUSH1 0x2 SLOAD DUP4 GT ISZERO DUP1 PUSH2 0x10AE JUMPI JUMPDEST PUSH2 0xE7D SWAP1 PUSH2 0x1A01 JUMP JUMPDEST DUP3 PUSH1 0x0 MSTORE PUSH1 0x3 DUP5 MSTORE PUSH1 0x40 PUSH1 0x0 KECCAK256 SWAP4 PUSH1 0xFF PUSH1 0x9 DUP7 ADD SLOAD PUSH1 0x8 SHR AND SWAP5 PUSH1 0x5 DUP7 LT ISZERO PUSH2 0x1099 JUMPI PUSH2 0xEAD PUSH1 0x1 DUP1 SWAP8 EQ PUSH2 0x1A43 JUMP JUMPDEST PUSH1 0x4 DUP2 ADD SLOAD TIMESTAMP LT PUSH2 0x1061 JUMPI PUSH1 0x5 DUP2 ADD SLOAD TIMESTAMP GT PUSH2 0x102F JUMPI DUP5 PUSH1 0x0 MSTORE PUSH1 0x4 DUP3 MSTORE PUSH1 0x40 PUSH1 0x0 KECCAK256 CALLER PUSH1 0x0 MSTORE DUP3 MSTORE PUSH1 0xFF PUSH1 0x40 PUSH1 0x0 KECCAK256 SLOAD AND PUSH2 0xFFC JUMPI CALLER PUSH1 0x0 MSTORE PUSH1 0x5 DUP3 MSTORE PUSH1 0x40 PUSH1 0x0 KECCAK256 SLOAD SWAP3 PUSH1 0x40 MLOAD SWAP1 PUSH2 0xEFF DUP3 PUSH2 0x179D JUMP JUMPDEST DUP8 DUP3 MSTORE DUP4 DUP3 ADD SWAP1 PUSH2 0xF10 DUP8 DUP4 PUSH2 0x1A85 JUMP JUMPDEST PUSH1 0x40 DUP4 ADD SWAP2 DUP7 DUP4 MSTORE DUP9 PUSH1 0x0 MSTORE PUSH1 0x4 DUP7 MSTORE PUSH1 0x40 PUSH1 0x0 KECCAK256 CALLER PUSH1 0x0 MSTORE DUP7 MSTORE PUSH2 0xF49 PUSH1 0x40 PUSH1 0x0 KECCAK256 SWAP5 MLOAD ISZERO ISZERO DUP6 SWAP1 PUSH1 0xFF DUP1 NOT DUP4 SLOAD AND SWAP2 ISZERO ISZERO AND OR SWAP1 SSTORE JUMP JUMPDEST MLOAD SWAP1 PUSH1 0x3 DUP3 LT ISZERO PUSH2 0xFE8 JUMPI POP DUP3 SLOAD PUSH2 0xFF00 NOT AND PUSH1 0x8 SWAP2 SWAP1 SWAP2 SHL PUSH2 0xFF00 AND OR DUP3 SSTORE MLOAD SWAP1 DUP8 ADD SSTORE DUP4 DUP7 SUB PUSH2 0xFC0 JUMPI PUSH1 0x6 ADD PUSH2 0xF83 DUP4 DUP3 SLOAD PUSH2 0x1994 JUMP JUMPDEST SWAP1 SSTORE JUMPDEST PUSH2 0xF93 PUSH1 0x40 MLOAD DUP1 SWAP5 PUSH2 0x18BE JUMP JUMPDEST DUP3 ADD MSTORE PUSH32 0x2C9DEB38F462962EADBD85A9D3A4120503EE091F1582EAAA10AA8C6797651D29 PUSH1 0x40 CALLER SWAP3 LOG3 DUP1 SSTORE STOP JUMPDEST DUP4 PUSH2 0xFDA JUMPI PUSH1 0x7 ADD PUSH2 0xFD3 DUP4 DUP3 SLOAD PUSH2 0x1994 JUMP JUMPDEST SWAP1 SSTORE PUSH2 0xF86 JUMP JUMPDEST PUSH1 0x8 ADD PUSH2 0xFD3 DUP4 DUP3 SLOAD PUSH2 0x1994 JUMP JUMPDEST PUSH4 0x4E487B71 PUSH1 0xE0 SHL PUSH1 0x0 SWAP1 DUP2 MSTORE PUSH1 0x21 PUSH1 0x4 MSTORE REVERT JUMPDEST POP PUSH1 0xD PUSH1 0x64 SWAP3 PUSH1 0x40 MLOAD SWAP3 PUSH3 0x461BCD PUSH1 0xE5 SHL DUP5 MSTORE PUSH1 0x4 DUP5 ADD MSTORE DUP3 ADD MSTORE PUSH13 0x105B1C9958591E481D9BDD1959 PUSH1 0x9A SHL PUSH1 0x44 DUP3 ADD MSTORE REVERT JUMPDEST POP PUSH1 0xC PUSH1 0x64 SWAP3 PUSH1 0x40 MLOAD SWAP3 PUSH3 0x461BCD PUSH1 0xE5 SHL DUP5 MSTORE PUSH1 0x4 DUP5 ADD MSTORE DUP3 ADD MSTORE PUSH12 0x159BDD1A5B99C8195B991959 PUSH1 0xA2 SHL PUSH1 0x44 DUP3 ADD MSTORE REVERT JUMPDEST POP PUSH1 0x12 PUSH1 0x64 SWAP3 PUSH1 0x40 MLOAD SWAP3 PUSH3 0x461BCD PUSH1 0xE5 SHL DUP5 MSTORE PUSH1 0x4 DUP5 ADD MSTORE DUP3 ADD MSTORE PUSH18 0x159BDD1A5B99C81B9BDD081CDD185C9D1959 PUSH1 0x72 SHL PUSH1 0x44 DUP3 ADD MSTORE REVERT JUMPDEST DUP3 PUSH4 0x4E487B71 PUSH1 0xE0 SHL PUSH1 0x0 MSTORE PUSH1 0x21 PUSH1 0x4 MSTORE PUSH1 0x0 REVERT JUMPDEST POP DUP3 ISZERO ISZERO PUSH2 0xE74 JUMP JUMPDEST DUP4 PUSH1 0xF PUSH1 0x64 SWAP3 PUSH1 0x40 MLOAD SWAP3 PUSH3 0x461BCD PUSH1 0xE5 SHL DUP5 MSTORE PUSH1 0x4 DUP5 ADD MSTORE DUP3 ADD MSTORE PUSH15 0x2737903B37BA34B733903837BBB2B9 PUSH1 0x89 SHL PUSH1 0x44 DUP3 ADD MSTORE REVERT JUMPDEST CALLVALUE PUSH2 0x789 JUMPI PUSH1 0x20 CALLDATASIZE PUSH1 0x3 NOT ADD SLT PUSH2 0x789 JUMPI PUSH1 0x20 PUSH2 0x110A PUSH1 0x4 CALLDATALOAD PUSH2 0x1AE7 JUMP JUMPDEST PUSH2 0x1117 PUSH1 0x40 MLOAD DUP1 SWAP3 PUSH2 0x1838 JUMP JUMPDEST RETURN JUMPDEST CALLVALUE PUSH2 0x789 JUMPI PUSH1 0x0 CALLDATASIZE PUSH1 0x3 NOT ADD SLT PUSH2 0x789 JUMPI PUSH1 0x0 SLOAD PUSH1 0x40 MLOAD PUSH1 0x1 PUSH1 0x1 PUSH1 0xA0 SHL SUB SWAP1 SWAP2 AND DUP2 MSTORE PUSH1 0x20 SWAP1 RETURN JUMPDEST CALLVALUE PUSH2 0x789 JUMPI PUSH1 0x0 CALLDATASIZE PUSH1 0x3 NOT ADD SLT PUSH2 0x789 JUMPI PUSH2 0x115B PUSH2 0x193C JUMP JUMPDEST PUSH1 0x0 DUP1 SLOAD PUSH1 0x1 PUSH1 0x1 PUSH1 0xA0 SHL SUB NOT DUP2 AND DUP3 SSTORE PUSH1 0x1 PUSH1 0x1 PUSH1 0xA0 SHL SUB AND PUSH32 0x8BE0079C531659141344CD1FD0A4F28419497F9722A3DAAFE3B4186F6B6457E0 DUP3 DUP1 LOG3 STOP JUMPDEST CALLVALUE PUSH2 0x789 JUMPI PUSH1 0x40 CALLDATASIZE PUSH1 0x3 NOT ADD SLT PUSH2 0x789 JUMPI PUSH2 0x11B4 PUSH2 0x185B JUMP JUMPDEST PUSH1 0x4 CALLDATALOAD PUSH1 0x0 MSTORE PUSH1 0x4 PUSH1 0x20 MSTORE PUSH1 0x40 PUSH1 0x0 KECCAK256 SWAP1 PUSH1 0x1 DUP1 PUSH1 0xA0 SHL SUB AND PUSH1 0x0 MSTORE PUSH1 0x20 MSTORE PUSH1 0x20 PUSH1 0xFF PUSH1 0x40 PUSH1 0x0 KECCAK256 SLOAD AND PUSH1 0x40 MLOAD SWAP1 ISZERO ISZERO DUP2 MSTORE RETURN JUMPDEST CALLVALUE PUSH2 0x789 JUMPI PUSH1 0x20 CALLDATASIZE PUSH1 0x3 NOT ADD SLT PUSH2 0x789 JUMPI PUSH1 0x1 PUSH1 0x1 PUSH1 0xA0 SHL SUB PUSH2 0x1209 PUSH2 0x1845 JUMP JUMPDEST AND PUSH1 0x0 MSTORE PUSH1 0x5 PUSH1 0x20 MSTORE PUSH1 0x20 PUSH1 0x40 PUSH1 0x0 KECCAK256 SLOAD PUSH1 0x40 MLOAD SWAP1 DUP2 MSTORE RETURN JUMPDEST CALLVALUE PUSH2 0x789 JUMPI PUSH1 0x0 CALLDATASIZE PUSH1 0x3 NOT ADD SLT PUSH2 0x789 JUMPI PUSH1 0x20 PUSH1 0x6 SLOAD PUSH1 0x40 MLOAD SWAP1 DUP2 MSTORE RETURN JUMPDEST CALLVALUE PUSH2 0x789 JUMPI PUSH1 0x20 DUP1 PUSH1 0x3 NOT CALLDATASIZE ADD SLT PUSH2 0x789 JUMPI PUSH1 0x4 CALLDATALOAD PUSH2 0x125D PUSH2 0x1A91 JUMP JUMPDEST PUSH1 0x2 SLOAD DUP2 GT ISZERO DUP1 PUSH2 0x1579 JUMPI JUMPDEST PUSH2 0x1272 SWAP1 PUSH2 0x1A01 JUMP JUMPDEST DUP1 PUSH1 0x0 MSTORE PUSH1 0x3 DUP3 MSTORE PUSH1 0x40 PUSH1 0x0 KECCAK256 SWAP2 PUSH1 0x9 DUP4 ADD SWAP3 DUP4 SLOAD SWAP4 PUSH1 0xFF DUP6 PUSH1 0x8 SHR AND SWAP5 PUSH1 0x5 DUP7 LT ISZERO PUSH2 0x58D JUMPI PUSH2 0x12A6 PUSH1 0x1 DUP1 SWAP8 EQ PUSH2 0x1A43 JUMP JUMPDEST PUSH1 0x5 DUP4 ADD SLOAD TIMESTAMP GT ISZERO PUSH2 0x153E JUMPI PUSH1 0xFF AND PUSH2 0x1506 JUMPI DUP4 PUSH1 0x0 MSTORE PUSH1 0x3 DUP4 MSTORE PUSH1 0x40 PUSH1 0x0 KECCAK256 PUSH1 0x6 DUP2 ADD SLOAD PUSH1 0x7 DUP3 ADD SLOAD SWAP1 PUSH2 0x12E9 PUSH2 0x12DE DUP4 DUP4 PUSH2 0x1994 JUMP JUMPDEST PUSH1 0x8 DUP6 ADD SLOAD SWAP1 PUSH2 0x1994 JUMP JUMPDEST PUSH1 0x6 SLOAD PUSH1 0x14 DUP2 MUL SWAP1 DUP1 DUP3 DIV PUSH1 0x14 EQ SWAP1 ISZERO OR ISZERO PUSH2 0x69D JUMPI DUP9 SWAP5 PUSH32 0xD6B3A81DD8B7DC419D8D0F20797397EA2EABA914386B89898AA638438803A1EC SWAP5 DUP10 SWAP5 PUSH1 0xFF SWAP5 PUSH1 0x64 PUSH1 0x9 SWAP6 DIV GT PUSH1 0x0 EQ PUSH2 0x14D6 JUMPI POP POP DUP1 DUP3 ADD DUP1 SLOAD PUSH2 0xFF00 NOT AND PUSH2 0x200 OR SWAP1 SSTORE JUMPDEST ADD SLOAD PUSH1 0x8 SHR AND PUSH2 0x135C PUSH1 0x40 MLOAD DUP1 SWAP3 PUSH2 0x1838 JUMP JUMPDEST LOG2 DUP1 SLOAD SWAP1 PUSH1 0xFF DUP3 PUSH1 0x8 SHR AND PUSH1 0x5 DUP2 LT ISZERO PUSH2 0x58D JUMPI PUSH1 0x3 EQ PUSH2 0x137C JUMPI DUP6 DUP1 SSTORE STOP JUMPDEST PUSH1 0xFF NOT SWAP2 DUP3 AND DUP7 OR SWAP1 DUP2 SWAP1 SSTORE PUSH1 0x10 SHR PUSH1 0x1 PUSH1 0x1 PUSH1 0xA0 SHL SUB AND SWAP2 DUP3 PUSH2 0x13CE JUMPI JUMPDEST POP POP POP POP PUSH32 0x712AE1383F79AC853F8D882153778E0260EF8F03B504E2866E0593E04D2B291F PUSH1 0x0 DUP1 LOG2 DUP2 DUP1 DUP1 DUP1 DUP1 DUP6 DUP1 SSTORE STOP JUMPDEST PUSH1 0xA PUSH1 0xB DUP3 ADD SLOAD SWAP2 ADD PUSH1 0x40 MLOAD SWAP3 PUSH1 0x0 SWAP2 DUP1 SLOAD PUSH2 0x13E9 DUP2 PUSH2 0x16CD JUMP JUMPDEST SWAP3 DUP2 DUP12 AND SWAP2 DUP3 ISZERO PUSH2 0x14C2 JUMPI POP POP PUSH1 0x1 EQ PUSH2 0x148A JUMPI JUMPDEST POP POP SWAP2 PUSH1 0x0 SWAP4 SWAP2 DUP2 DUP6 SWAP5 SUB SWAP3 GAS CALL RETURNDATASIZE ISZERO PUSH2 0x1485 JUMPI RETURNDATASIZE PUSH2 0x141C DUP2 PUSH2 0x18CB JUMP JUMPDEST SWAP1 PUSH2 0x142A PUSH1 0x40 MLOAD SWAP3 DUP4 PUSH2 0x17D6 JUMP JUMPDEST DUP2 MSTORE PUSH1 0x0 DUP4 RETURNDATASIZE SWAP3 ADD RETURNDATACOPY JUMPDEST ISZERO PUSH2 0x1441 JUMPI DUP1 DUP1 DUP1 PUSH2 0x139B JUMP JUMPDEST PUSH1 0x64 SWAP1 PUSH1 0x40 MLOAD SWAP1 PUSH3 0x461BCD PUSH1 0xE5 SHL DUP3 MSTORE PUSH1 0x4 DUP3 ADD MSTORE PUSH1 0x19 PUSH1 0x24 DUP3 ADD MSTORE PUSH32 0x50726F706F73616C20657865637574696F6E206661696C656400000000000000 PUSH1 0x44 DUP3 ADD MSTORE REVERT JUMPDEST PUSH2 0x1434 JUMP JUMPDEST SWAP1 SWAP2 POP PUSH1 0x0 MSTORE DUP5 PUSH1 0x0 KECCAK256 DUP6 DUP9 PUSH1 0x0 SWAP3 JUMPDEST DUP5 DUP5 LT PUSH2 0x14B0 JUMPI POP POP POP SWAP1 DUP4 ADD SWAP1 POP DUP2 DUP4 PUSH2 0x13FE JUMP JUMPDEST DUP1 SLOAD DUP5 DUP9 ADD MSTORE ADD SWAP2 ADD SWAP1 DUP9 DUP8 SWAP2 PUSH2 0x149A JUMP JUMPDEST AND DUP7 MSTORE POP POP DUP1 ISZERO ISZERO MUL DUP4 ADD SWAP1 POP DUP2 DUP4 PUSH2 0x13FE JUMP JUMPDEST GT ISZERO PUSH2 0x14F1 JUMPI DUP1 DUP3 ADD DUP1 SLOAD PUSH2 0xFF00 NOT AND PUSH2 0x300 OR SWAP1 SSTORE PUSH2 0x1349 JUMP JUMPDEST DUP1 DUP3 ADD DUP1 SLOAD PUSH2 0xFF00 NOT AND PUSH2 0x200 OR SWAP1 SSTORE PUSH2 0x1349 JUMP JUMPDEST PUSH1 0x40 MLOAD PUSH3 0x461BCD PUSH1 0xE5 SHL DUP2 MSTORE PUSH1 0x4 DUP2 ADD DUP5 SWAP1 MSTORE PUSH1 0x10 PUSH1 0x24 DUP3 ADD MSTORE PUSH16 0x105B1C9958591E48195E1958DD5D1959 PUSH1 0x82 SHL PUSH1 0x44 DUP3 ADD MSTORE PUSH1 0x64 SWAP1 REVERT JUMPDEST PUSH1 0x40 MLOAD PUSH3 0x461BCD PUSH1 0xE5 SHL DUP2 MSTORE PUSH1 0x4 DUP2 ADD DUP6 SWAP1 MSTORE PUSH1 0x13 PUSH1 0x24 DUP3 ADD MSTORE PUSH19 0x566F74696E67207374696C6C20616374697665 PUSH1 0x68 SHL PUSH1 0x44 DUP3 ADD MSTORE PUSH1 0x64 SWAP1 REVERT JUMPDEST POP DUP1 ISZERO ISZERO PUSH2 0x1269 JUMP JUMPDEST CALLVALUE PUSH2 0x789 JUMPI PUSH1 0x20 CALLDATASIZE PUSH1 0x3 NOT ADD SLT PUSH2 0x789 JUMPI PUSH1 0x4 CALLDATALOAD PUSH1 0x0 SWAP1 DUP2 MSTORE PUSH1 0x3 PUSH1 0x20 MSTORE PUSH1 0x40 SWAP1 KECCAK256 DUP1 SLOAD PUSH1 0x1 DUP3 ADD SLOAD PUSH1 0x1 PUSH1 0x1 PUSH1 0xA0 SHL SUB SWAP1 DUP2 AND SWAP4 SWAP2 SWAP3 SWAP1 DUP3 PUSH2 0x15C8 DUP2 PUSH1 0x2 DUP6 ADD PUSH2 0x1707 JUMP JUMPDEST SUB PUSH2 0x15D3 SWAP1 DUP5 PUSH2 0x17D6 JUMP JUMPDEST PUSH1 0x40 MLOAD SWAP1 DUP2 PUSH2 0x15E5 DUP2 PUSH1 0x3 DUP7 ADD PUSH2 0x1707 JUMP JUMPDEST SUB PUSH2 0x15F0 SWAP1 DUP4 PUSH2 0x17D6 JUMP JUMPDEST PUSH1 0x4 DUP4 ADD SLOAD SWAP2 PUSH1 0x5 DUP5 ADD SLOAD PUSH1 0x6 DUP6 ADD SLOAD PUSH1 0x7 DUP7 ADD SLOAD SWAP1 PUSH1 0x8 DUP8 ADD SLOAD SWAP3 PUSH1 0x9 DUP9 ADD SLOAD SWAP5 PUSH1 0x40 MLOAD SWAP9 DUP10 DUP1 PUSH1 0xA DUP4 ADD SWAP1 PUSH2 0x1626 SWAP2 PUSH2 0x1707 JUMP JUMPDEST SUB PUSH2 0x1631 SWAP1 DUP12 PUSH2 0x17D6 JUMP JUMPDEST PUSH1 0xB ADD SLOAD SWAP10 PUSH1 0x40 MLOAD SWAP13 DUP14 SWAP13 DUP14 MSTORE PUSH1 0x20 DUP14 ADD MSTORE DUP12 PUSH2 0x1C0 PUSH1 0x40 DUP2 SWAP3 ADD MSTORE DUP13 ADD PUSH2 0x1658 SWAP2 PUSH2 0x17F8 JUMP JUMPDEST DUP12 DUP2 SUB PUSH1 0x60 DUP14 ADD MSTORE PUSH2 0x1669 SWAP2 PUSH2 0x17F8 JUMP JUMPDEST SWAP7 PUSH1 0x80 DUP12 ADD MSTORE PUSH1 0xA0 DUP11 ADD MSTORE PUSH1 0xC0 DUP10 ADD MSTORE PUSH1 0xE0 DUP9 ADD MSTORE PUSH2 0x100 DUP8 ADD MSTORE PUSH1 0xFF DUP2 AND ISZERO ISZERO PUSH2 0x120 DUP8 ADD MSTORE PUSH2 0x140 DUP7 ADD DUP2 PUSH1 0x8 SHR PUSH1 0xFF AND SWAP1 PUSH2 0x16A6 SWAP2 PUSH2 0x1838 JUMP JUMPDEST PUSH1 0x10 SHR AND PUSH2 0x160 DUP6 ADD MSTORE DUP4 DUP2 SUB PUSH2 0x180 DUP6 ADD MSTORE PUSH2 0x16C2 SWAP2 PUSH2 0x17F8 JUMP JUMPDEST SWAP1 PUSH2 0x1A0 DUP4 ADD MSTORE SUB SWAP1 RETURN JUMPDEST SWAP1 PUSH1 0x1 DUP3 DUP2 SHR SWAP3 AND DUP1 ISZERO PUSH2 0x16FD JUMPI JUMPDEST PUSH1 0x20 DUP4 LT EQ PUSH2 0x16E7 JUMPI JUMP JUMPDEST PUSH4 0x4E487B71 PUSH1 0xE0 SHL PUSH1 0x0 MSTORE PUSH1 0x22 PUSH1 0x4 MSTORE PUSH1 0x24 PUSH1 0x0 REVERT JUMPDEST SWAP2 PUSH1 0x7F AND SWAP2 PUSH2 0x16DC JUMP JUMPDEST SWAP1 PUSH1 0x0 SWAP3 SWAP2 DUP1 SLOAD SWAP2 PUSH2 0x1718 DUP4 PUSH2 0x16CD JUMP JUMPDEST SWAP2 DUP3 DUP3 MSTORE PUSH1 0x1 SWAP4 DUP5 DUP2 AND SWAP1 DUP2 PUSH1 0x0 EQ PUSH2 0x177A JUMPI POP PUSH1 0x1 EQ PUSH2 0x173A JUMPI JUMPDEST POP POP POP POP JUMP JUMPDEST SWAP1 SWAP2 SWAP4 SWAP5 POP PUSH1 0x0 MSTORE PUSH1 0x20 SWAP3 DUP4 PUSH1 0x0 KECCAK256 SWAP3 DUP5 PUSH1 0x0 SWAP5 JUMPDEST DUP4 DUP7 LT PUSH2 0x1766 JUMPI POP POP POP POP ADD ADD SWAP1 CODESIZE DUP1 DUP1 DUP1 PUSH2 0x1734 JUMP JUMPDEST DUP1 SLOAD DUP6 DUP8 ADD DUP4 ADD MSTORE SWAP5 ADD SWAP4 DUP6 SWAP1 DUP3 ADD PUSH2 0x174F JUMP JUMPDEST SWAP3 SWAP5 POP POP POP PUSH1 0x20 SWAP4 SWAP5 POP PUSH1 0xFF NOT AND DUP4 DUP4 ADD MSTORE ISZERO ISZERO PUSH1 0x5 SHL ADD ADD SWAP1 CODESIZE DUP1 DUP1 DUP1 PUSH2 0x1734 JUMP JUMPDEST PUSH1 0x60 DUP2 ADD SWAP1 DUP2 LT PUSH8 0xFFFFFFFFFFFFFFFF DUP3 GT OR PUSH2 0x4FD JUMPI PUSH1 0x40 MSTORE JUMP JUMPDEST PUSH2 0x1C0 DUP2 ADD SWAP1 DUP2 LT PUSH8 0xFFFFFFFFFFFFFFFF DUP3 GT OR PUSH2 0x4FD JUMPI PUSH1 0x40 MSTORE JUMP JUMPDEST SWAP1 PUSH1 0x1F DUP1 NOT SWAP2 ADD AND DUP2 ADD SWAP1 DUP2 LT PUSH8 0xFFFFFFFFFFFFFFFF DUP3 GT OR PUSH2 0x4FD JUMPI PUSH1 0x40 MSTORE JUMP JUMPDEST SWAP2 SWAP1 DUP3 MLOAD SWAP3 DUP4 DUP3 MSTORE PUSH1 0x0 JUMPDEST DUP5 DUP2 LT PUSH2 0x1824 JUMPI POP POP DUP3 PUSH1 0x0 PUSH1 0x20 DUP1 SWAP5 SWAP6 DUP5 ADD ADD MSTORE PUSH1 0x1F DUP1 NOT SWAP2 ADD AND ADD ADD SWAP1 JUMP JUMPDEST PUSH1 0x20 DUP2 DUP4 ADD DUP2 ADD MLOAD DUP5 DUP4 ADD DUP3 ADD MSTORE ADD PUSH2 0x1803 JUMP JUMPDEST SWAP1 PUSH1 0x5 DUP3 LT ISZERO PUSH2 0x58D JUMPI MSTORE JUMP JUMPDEST PUSH1 0x4 CALLDATALOAD SWAP1 PUSH1 0x1 PUSH1 0x1 PUSH1 0xA0 SHL SUB DUP3 AND DUP3 SUB PUSH2 0x789 JUMPI JUMP JUMPDEST PUSH1 0x24 CALLDATALOAD SWAP1 PUSH1 0x1 PUSH1 0x1 PUSH1 0xA0 SHL SUB DUP3 AND DUP3 SUB PUSH2 0x789 JUMPI JUMP JUMPDEST PUSH1 0x7 SLOAD DUP2 LT ISZERO PUSH2 0x18A8 JUMPI PUSH1 0x7 PUSH1 0x0 MSTORE PUSH32 0xA66CC928B5EDB82AF9BD49922954155AB7B0942694BEA4CE44661D9A8736C688 ADD SWAP1 PUSH1 0x0 SWAP1 JUMP JUMPDEST PUSH4 0x4E487B71 PUSH1 0xE0 SHL PUSH1 0x0 MSTORE PUSH1 0x32 PUSH1 0x4 MSTORE PUSH1 0x24 PUSH1 0x0 REVERT JUMPDEST SWAP1 PUSH1 0x3 DUP3 LT ISZERO PUSH2 0x58D JUMPI MSTORE JUMP JUMPDEST PUSH8 0xFFFFFFFFFFFFFFFF DUP2 GT PUSH2 0x4FD JUMPI PUSH1 0x1F ADD PUSH1 0x1F NOT AND PUSH1 0x20 ADD SWAP1 JUMP JUMPDEST SWAP3 SWAP2 SWAP3 PUSH2 0x18F3 DUP3 PUSH2 0x18CB JUMP JUMPDEST SWAP2 PUSH2 0x1901 PUSH1 0x40 MLOAD SWAP4 DUP5 PUSH2 0x17D6 JUMP JUMPDEST DUP3 SWAP5 DUP2 DUP5 MSTORE DUP2 DUP4 ADD GT PUSH2 0x789 JUMPI DUP3 DUP2 PUSH1 0x20 SWAP4 DUP5 PUSH1 0x0 SWAP7 ADD CALLDATACOPY ADD ADD MSTORE JUMP JUMPDEST SWAP1 DUP1 PUSH1 0x1F DUP4 ADD SLT ISZERO PUSH2 0x789 JUMPI DUP2 PUSH1 0x20 PUSH2 0x1939 SWAP4 CALLDATALOAD SWAP2 ADD PUSH2 0x18E7 JUMP JUMPDEST SWAP1 JUMP JUMPDEST PUSH1 0x0 SLOAD PUSH1 0x1 PUSH1 0x1 PUSH1 0xA0 SHL SUB AND CALLER SUB PUSH2 0x1950 JUMPI JUMP JUMPDEST PUSH1 0x64 PUSH1 0x40 MLOAD PUSH3 0x461BCD PUSH1 0xE5 SHL DUP2 MSTORE PUSH1 0x20 PUSH1 0x4 DUP3 ADD MSTORE PUSH1 0x20 PUSH1 0x24 DUP3 ADD MSTORE PUSH32 0x4F776E61626C653A2063616C6C6572206973206E6F7420746865206F776E6572 PUSH1 0x44 DUP3 ADD MSTORE REVERT JUMPDEST SWAP2 SWAP1 DUP3 ADD DUP1 SWAP3 GT PUSH2 0x69D JUMPI JUMP JUMPDEST PUSH1 0x5 DUP3 LT ISZERO PUSH2 0x58D JUMPI MSTORE JUMP JUMPDEST SWAP1 PUSH1 0x1F DUP2 GT PUSH2 0x19BB JUMPI POP POP POP JUMP JUMPDEST PUSH1 0x0 SWAP2 DUP3 MSTORE PUSH1 0x20 DUP3 KECCAK256 SWAP1 PUSH1 0x20 PUSH1 0x1F DUP6 ADD PUSH1 0x5 SHR DUP4 ADD SWAP5 LT PUSH2 0x19F7 JUMPI JUMPDEST PUSH1 0x1F ADD PUSH1 0x5 SHR ADD SWAP2 JUMPDEST DUP3 DUP2 LT PUSH2 0x19EC JUMPI POP POP POP JUMP JUMPDEST DUP2 DUP2 SSTORE PUSH1 0x1 ADD PUSH2 0x19E0 JUMP JUMPDEST SWAP1 SWAP3 POP DUP3 SWAP1 PUSH2 0x19D7 JUMP JUMPDEST ISZERO PUSH2 0x1A08 JUMPI JUMP JUMPDEST PUSH1 0x40 MLOAD PUSH3 0x461BCD PUSH1 0xE5 SHL DUP2 MSTORE PUSH1 0x20 PUSH1 0x4 DUP3 ADD MSTORE PUSH1 0x13 PUSH1 0x24 DUP3 ADD MSTORE PUSH19 0x125B9D985B1A59081C1C9BDC1BDCD85B081251 PUSH1 0x6A SHL PUSH1 0x44 DUP3 ADD MSTORE PUSH1 0x64 SWAP1 REVERT JUMPDEST ISZERO PUSH2 0x1A4A JUMPI JUMP JUMPDEST PUSH1 0x40 MLOAD PUSH3 0x461BCD PUSH1 0xE5 SHL DUP2 MSTORE PUSH1 0x20 PUSH1 0x4 DUP3 ADD MSTORE PUSH1 0x13 PUSH1 0x24 DUP3 ADD MSTORE PUSH19 0x50726F706F73616C206E6F7420616374697665 PUSH1 0x68 SHL PUSH1 0x44 DUP3 ADD MSTORE PUSH1 0x64 SWAP1 REVERT JUMPDEST PUSH1 0x3 DUP3 LT ISZERO PUSH2 0x58D JUMPI MSTORE JUMP JUMPDEST PUSH1 0x2 PUSH1 0x1 SLOAD EQ PUSH2 0x1AA2 JUMPI PUSH1 0x2 PUSH1 0x1 SSTORE JUMP JUMPDEST PUSH1 0x40 MLOAD PUSH3 0x461BCD PUSH1 0xE5 SHL DUP2 MSTORE PUSH1 0x20 PUSH1 0x4 DUP3 ADD MSTORE PUSH1 0x1F PUSH1 0x24 DUP3 ADD MSTORE PUSH32 0x5265656E7472616E637947756172643A207265656E7472616E742063616C6C00 PUSH1 0x44 DUP3 ADD MSTORE PUSH1 0x64 SWAP1 REVERT JUMPDEST PUSH1 0x2 SLOAD DUP2 GT ISZERO DUP1 PUSH2 0x1C63 JUMPI JUMPDEST PUSH2 0x1AFC SWAP1 PUSH2 0x1A01 JUMP JUMPDEST PUSH1 0x0 MSTORE PUSH1 0x3 PUSH1 0x20 MSTORE PUSH1 0x40 DUP1 PUSH1 0x0 KECCAK256 SWAP1 DUP1 MLOAD SWAP1 PUSH2 0x1B17 DUP3 PUSH2 0x17B9 JUMP JUMPDEST DUP3 SLOAD DUP3 MSTORE PUSH1 0x1 DUP4 ADD SLOAD PUSH1 0x1 PUSH1 0x1 PUSH1 0xA0 SHL SUB SWAP1 DUP2 AND PUSH1 0x20 DUP5 ADD MSTORE DUP2 MLOAD PUSH2 0x1B43 DUP2 PUSH2 0xAD5 DUP2 PUSH1 0x2 DUP10 ADD PUSH2 0x1707 JUMP JUMPDEST DUP3 DUP5 ADD MSTORE DUP2 MLOAD PUSH2 0x1B5A DUP2 PUSH2 0xAD5 DUP2 PUSH1 0x3 DUP10 ADD PUSH2 0x1707 JUMP JUMPDEST PUSH1 0x60 DUP5 ADD MSTORE PUSH1 0x4 DUP5 ADD SLOAD PUSH1 0x80 DUP5 ADD MSTORE PUSH1 0x5 DUP5 ADD SLOAD SWAP1 PUSH1 0xA0 DUP5 ADD SWAP2 DUP3 MSTORE PUSH1 0x6 DUP6 ADD SLOAD SWAP4 PUSH1 0xC0 DUP2 ADD SWAP5 DUP6 MSTORE PUSH2 0x1A0 PUSH1 0xB PUSH1 0x7 DUP9 ADD SLOAD SWAP8 PUSH1 0xE0 DUP5 ADD SWAP9 DUP10 MSTORE PUSH1 0x8 DUP2 ADD SLOAD SWAP7 PUSH2 0x100 DUP6 ADD SWAP8 DUP9 MSTORE PUSH1 0x9 DUP3 ADD SLOAD SWAP6 PUSH2 0x120 DUP7 ADD SWAP7 PUSH1 0xFF DUP2 AND ISZERO ISZERO DUP9 MSTORE PUSH2 0x1BCB PUSH1 0xFF DUP3 PUSH1 0x8 SHR AND PUSH2 0x140 DUP10 ADD PUSH2 0x19A1 JUMP JUMPDEST PUSH1 0x10 SHR AND PUSH2 0x160 DUP7 ADD MSTORE MLOAD PUSH2 0x1BE7 DUP2 PUSH2 0xAD5 DUP2 PUSH1 0xA DUP7 ADD PUSH2 0x1707 JUMP JUMPDEST PUSH2 0x180 DUP6 ADD MSTORE ADD SLOAD SWAP2 ADD MSTORE MLOAD PUSH2 0x1C5A JUMPI MLOAD TIMESTAMP GT ISZERO PUSH2 0x1C52 JUMPI PUSH2 0x1C18 SWAP1 PUSH2 0x1C10 DUP4 MLOAD DUP6 MLOAD SWAP1 PUSH2 0x1994 JUMP JUMPDEST SWAP1 MLOAD SWAP1 PUSH2 0x1994 JUMP JUMPDEST PUSH1 0x6 SLOAD PUSH1 0x14 DUP2 MUL SWAP1 DUP1 DUP3 DIV PUSH1 0x14 EQ SWAP1 ISZERO OR ISZERO PUSH2 0x69D JUMPI PUSH1 0x64 SWAP1 DIV GT ISZERO PUSH2 0x1C3F JUMPI POP POP PUSH1 0x2 SWAP1 JUMP JUMPDEST MLOAD SWAP1 MLOAD LT ISZERO PUSH2 0x1C4D JUMPI PUSH1 0x3 SWAP1 JUMP JUMPDEST PUSH1 0x2 SWAP1 JUMP JUMPDEST POP POP POP PUSH1 0x1 SWAP1 JUMP JUMPDEST POP POP POP POP PUSH1 0x4 SWAP1 JUMP JUMPDEST POP DUP1 ISZERO ISZERO PUSH2 0x1AF3 JUMP INVALID LOG2 PUSH5 0x6970667358 0x22 SLT KECCAK256 LOG4 MULMOD 0xEF MSTORE JUMP PUSH21 0xC5DDEDD5E284EDB98D75716E4D79AC225E5310A274 0xC0 CREATE MSIZE CODECOPY 0xA9 PUSH5 0x736F6C6343 STOP ADDMOD EQ STOP CALLER "},"methodIdentifiers":{"PROPOSAL_THRESHOLD()":"a6c26603","QUORUM_PERCENTAGE()":"ee8a7c15","VOTING_DURATION()":"a438d208","balances(address)":"27e235e3","createProposal(string,string,address,bytes,uint256)":"f7b2f722","emergencyPause(uint256)":"ad3fbe30","executeProposal(uint256)":"0d61b519","getAllProposals()":"cceb68f5","getProposal(uint256)":"c7f758a8","getProposalCount()":"c08cc02d","getProposalState(uint256)":"9080936f","getVote(uint256,address)":"bc3f931f","hasVoted(uint256,address)":"43859632","owner()":"8da5cb5b","proposalIds(uint256)":"9b644a23","proposals(uint256)":"013cf08b","renounceOwnership()":"715018a6","setBalance(address,uint256)":"e30443bc","totalSupply()":"18160ddd","transferOwnership(address)":"f2fde38b","vote(uint256,uint8)":"943e8216","votes(uint256,address)":"d23254b4"}}}}}