{"contracts/ProofOfReserves.sol":{"ProofOfReserves":{"abi":[{"anonymous":false,"inputs":[{"indexed":false,"internalType":"string","name":"message","type":"string"}],"name":"Alert","type":"event"},{"anonymous":false,"inputs":[{"indexed":false,"internalType":"bool","name":"valid","type":"bool"}],"name":"ProofVerified","type":"event"},{"inputs":[],"name":"circulatingSupply","outputs":[{"internalType":"uint256","name":"","type":"uint256"}],"stateMutability":"view","type":"function"},{"inputs":[],"name":"merkleRoot","outputs":[{"internalType":"bytes32","name":"","type":"bytes32"}],"stateMutability":"view","type":"function"},{"inputs":[{"internalType":"uint256","name":"_supply","type":"uint256"}],"name":"setSupply","outputs":[],"stateMutability":"nonpayable","type":"function"},{"inputs":[{"internalType":"bytes32","name":"_root","type":"bytes32"}],"name":"updateRoot","outputs":[],"stateMutability":"nonpayable","type":"function"},{"inputs":[{"internalType":"uint256","name":"totalReserves","type":"uint256"}],"name":"verifyProof","outputs":[],"stateMutability":"nonpayable","type":"function"}],"evm":{"bytecode":{"linkReferences":{},"object":"60808060405234610016576101cf908161001c8239f35b600080fdfe60806040818152600436101561001457600080fd5b600091823560e01c90816321ff99701461017f5781632eb4a7ab14610165575080633b4c4b25146101475780638b6958ff1461007a57639358928b1461005957600080fd5b346100765781600319360112610076576020906001549051908152f35b5080fd5b503461007657602036600319011261007657600154600435106100c45760207ff4d358772b552280f9395158c37bc77ddcbcdeaf62b20aa01276fb89d7ea1923915160018152a180f35b6060817ff4d358772b552280f9395158c37bc77ddcbcdeaf62b20aa01276fb89d7ea192360207fb42f912d2a6c6c7da83228b8b84b12578ffa4267ec2980110bcf1f59c08329869451868152a17f5265736572766573203c20537570706c7920646574656374656421000000000081519160208352601b6020840152820152a180f35b82346101625760203660031901126101625760043560015580f35b80fd5b839034610076578160031936011261007657602091548152f35b833461016257602036600319011261016257600435815580f3fea2646970667358221220f4d15722a69af2059d68c7a690662f0e1b174122b689431ad7930b8ffefd3a9a64736f6c63430008140033","opcodes":"PUSH1 0x80 DUP1 PUSH1 0x40 MSTORE CALLVALUE PUSH2 0x16 JUMPI PUSH2 0x1CF SWAP1 DUP2 PUSH2 0x1C DUP3 CODECOPY RETURN JUMPDEST PUSH1 0x0 DUP1 REVERT INVALID PUSH1 0x80 PUSH1 0x40 DUP2 DUP2 MSTORE PUSH1 0x4 CALLDATASIZE LT ISZERO PUSH2 0x14 JUMPI PUSH1 0x0 DUP1 REVERT JUMPDEST PUSH1 0x0 SWAP2 DUP3 CALLDATALOAD PUSH1 0xE0 SHR SWAP1 DUP2 PUSH4 0x21FF9970 EQ PUSH2 0x17F JUMPI DUP2 PUSH4 0x2EB4A7AB EQ PUSH2 0x165 JUMPI POP DUP1 PUSH4 0x3B4C4B25 EQ PUSH2 0x147 JUMPI DUP1 PUSH4 0x8B6958FF EQ PUSH2 0x7A JUMPI PUSH4 0x9358928B EQ PUSH2 0x59 JUMPI PUSH1 0x0 DUP1 REVERT JUMPDEST CALLVALUE PUSH2 0x76 JUMPI DUP2 PUSH1 0x3 NOT CALLDATASIZE ADD SLT PUSH2 0x76 JUMPI PUSH1 0x20 SWAP1 PUSH1 0x1 SLOAD SWAP1 MLOAD SWAP1 DUP2 MSTORE RETURN JUMPDEST POP DUP1 REVERT JUMPDEST POP CALLVALUE PUSH2 0x76 JUMPI PUSH1 0x20 CALLDATASIZE PUSH1 0x3 NOT ADD SLT PUSH2 0x76 JUMPI PUSH1 0x1 SLOAD PUSH1 0x4 CALLDATALOAD LT PUSH2 0xC4 JUMPI PUSH1 0x20 PUSH32 0xF4D358772B552280F9395158C37BC77DDCBCDEAF62B20AA01276FB89D7EA1923 SWAP2 MLOAD PUSH1 0x1 DUP2 MSTORE LOG1 DUP1 RETURN JUMPDEST PUSH1 0x60 DUP2 PUSH32 0xF4D358772B552280F9395158C37BC77DDCBCDEAF62B20AA01276FB89D7EA1923 PUSH1 0x20 PUSH32 0xB42F912D2A6C6C7DA83228B8B84B12578FFA4267EC2980110BCF1F59C0832986 SWAP5 MLOAD DUP7 DUP2 MSTORE LOG1 PUSH32 0x5265736572766573203C20537570706C79206465746563746564210000000000 DUP2 MLOAD SWAP2 PUSH1 0x20 DUP4 MSTORE PUSH1 0x1B PUSH1 0x20 DUP5 ADD MSTORE DUP3 ADD MSTORE LOG1 DUP1 RETURN JUMPDEST DUP3 CALLVALUE PUSH2 0x162 JUMPI PUSH1 0x20 CALLDATASIZE PUSH1 0x3 NOT ADD SLT PUSH2 0x162 JUMPI PUSH1 0x4 CALLDATALOAD PUSH1 0x1 SSTORE DUP1 RETURN JUMPDEST DUP1 REVERT JUMPDEST DUP4 SWAP1 CALLVALUE PUSH2 0x76 JUMPI DUP2 PUSH1 0x3 NOT CALLDATASIZE ADD SLT PUSH2 0x76 JUMPI PUSH1 0x20 SWAP2 SLOAD DUP2 MSTORE RETURN JUMPDEST DUP4 CALLVALUE PUSH2 0x162 JUMPI PUSH1 0x20 CALLDATASIZE PUSH1 0x3 NOT ADD SLT PUSH2 0x162 JUMPI PUSH1 0x4 CALLDATALOAD DUP2 SSTORE DUP1 RETURN INVALID LOG2 PUSH5 0x6970667358 0x22 SLT KECCAK256 DELEGATECALL 0xD1 JUMPI 0x22 0xA6 SWAP11 CALLCODE SDIV SWAP14 PUSH9 0xC7A690662F0E1B1741 0x22 0xB6 DUP10 NUMBER BYTE 0xD7 SWAP4 SIGNEXTEND DUP16 INVALID REVERT GASPRICE SWAP11 PUSH5 0x736F6C6343 STOP ADDMOD EQ STOP CALLER "},"methodIdentifiers":{"circulatingSupply()":"9358928b","merkleRoot()":"2eb4a7ab","setSupply(uint256)":"3b4c4b25","updateRoot(bytes32)":"21ff9970","verifyProof(uint256)":"8b6958ff"}}}}}